{
  "_format": "hh-sol-artifact-1",
  "contractName": "TheVote",
  "sourceName": "contracts/TheVote.sol",
  "abi": [
    {
      "anonymous": false,
      "inputs": [
        {
          "indexed": true,
          "internalType": "address",
          "name": "previousOwner",
          "type": "address"
        },
        {
          "indexed": true,
          "internalType": "address",
          "name": "newOwner",
          "type": "address"
        }
      ],
      "name": "OwnershipTransferred",
      "type": "event"
    },
    {
      "inputs": [
        {
          "internalType": "string",
          "name": "hashId",
          "type": "string"
        }
      ],
      "name": "exists",
      "outputs": [
        {
          "internalType": "bool",
          "name": "",
          "type": "bool"
        }
      ],
      "stateMutability": "view",
      "type": "function"
    },
    {
      "inputs": [
        {
          "internalType": "string",
          "name": "hashId",
          "type": "string"
        }
      ],
      "name": "hashIdOption",
      "outputs": [
        {
          "internalType": "uint256",
          "name": "",
          "type": "uint256"
        }
      ],
      "stateMutability": "view",
      "type": "function"
    },
    {
      "inputs": [
        {
          "internalType": "uint256",
          "name": "option",
          "type": "uint256"
        }
      ],
      "name": "listHashId",
      "outputs": [
        {
          "internalType": "string[]",
          "name": "",
          "type": "string[]"
        }
      ],
      "stateMutability": "view",
      "type": "function"
    },
    {
      "inputs": [],
      "name": "listVote",
      "outputs": [
        {
          "components": [
            {
              "internalType": "string",
              "name": "hashId",
              "type": "string"
            },
            {
              "internalType": "uint256",
              "name": "option",
              "type": "uint256"
            }
          ],
          "internalType": "struct TheVote.Vote[]",
          "name": "",
          "type": "tuple[]"
        }
      ],
      "stateMutability": "view",
      "type": "function"
    },
    {
      "inputs": [],
      "name": "owner",
      "outputs": [
        {
          "internalType": "address",
          "name": "",
          "type": "address"
        }
      ],
      "stateMutability": "view",
      "type": "function"
    },
    {
      "inputs": [],
      "name": "renounceOwnership",
      "outputs": [],
      "stateMutability": "nonpayable",
      "type": "function"
    },
    {
      "inputs": [],
      "name": "supply",
      "outputs": [
        {
          "internalType": "uint256",
          "name": "",
          "type": "uint256"
        }
      ],
      "stateMutability": "view",
      "type": "function"
    },
    {
      "inputs": [
        {
          "internalType": "address",
          "name": "newOwner",
          "type": "address"
        }
      ],
      "name": "transferOwnership",
      "outputs": [],
      "stateMutability": "nonpayable",
      "type": "function"
    },
    {
      "inputs": [
        {
          "internalType": "string",
          "name": "hashId",
          "type": "string"
        },
        {
          "internalType": "uint256",
          "name": "option",
          "type": "uint256"
        }
      ],
      "name": "vote",
      "outputs": [],
      "stateMutability": "nonpayable",
      "type": "function"
    },
    {
      "inputs": [
        {
          "internalType": "uint256",
          "name": "index",
          "type": "uint256"
        }
      ],
      "name": "voteByIndex",
      "outputs": [
        {
          "components": [
            {
              "internalType": "string",
              "name": "hashId",
              "type": "string"
            },
            {
              "internalType": "uint256",
              "name": "option",
              "type": "uint256"
            }
          ],
          "internalType": "struct TheVote.Vote",
          "name": "",
          "type": "tuple"
        }
      ],
      "stateMutability": "view",
      "type": "function"
    },
    {
      "inputs": [
        {
          "internalType": "uint256",
          "name": "",
          "type": "uint256"
        }
      ],
      "name": "voteIndex",
      "outputs": [
        {
          "internalType": "string",
          "name": "hashId",
          "type": "string"
        },
        {
          "internalType": "uint256",
          "name": "option",
          "type": "uint256"
        }
      ],
      "stateMutability": "view",
      "type": "function"
    }
  ],
  "bytecode": "0x608060405234801561001057600080fd5b5061002d61002261003260201b60201c565b61003a60201b60201c565b6100fe565b600033905090565b60008060009054906101000a900473ffffffffffffffffffffffffffffffffffffffff169050816000806101000a81548173ffffffffffffffffffffffffffffffffffffffff021916908373ffffffffffffffffffffffffffffffffffffffff1602179055508173ffffffffffffffffffffffffffffffffffffffff168173ffffffffffffffffffffffffffffffffffffffff167f8be0079c531659141344cd1fd0a4f28419497f9722a3daafe3b4186f6b6457e060405160405180910390a35050565b6117738061010d6000396000f3fe608060405234801561001057600080fd5b50600436106100a95760003560e01c80638da5cb5b116100715780638da5cb5b146101545780639030211814610172578063a6385803146101a2578063b435bbf6146101be578063cc4709f0146101ef578063f2fde38b1461021f576100a9565b8063047fc9aa146100ae578063261a323e146100cc578063447223c5146100fc578063499b2b161461012c578063715018a61461014a575b600080fd5b6100b661023b565b6040516100c3919061130a565b60405180910390f35b6100e660048036038101906100e19190610df2565b61024c565b6040516100f3919061121d565b60405180910390f35b61011660048036038101906101119190610df2565b610344565b604051610123919061130a565b60405180910390f35b610134610496565b60405161014191906111fb565b60405180910390f35b6101526105c4565b005b61015c61064c565b60405161016991906111be565b60405180910390f35b61018c60048036038101906101879190610e87565b610675565b60405161019991906111d9565b60405180910390f35b6101bc60048036038101906101b79190610e33565b6107b9565b005b6101d860048036038101906101d39190610e87565b6108ed565b6040516101e6929190611238565b60405180910390f35b61020960048036038101906102049190610e87565b610999565b60405161021691906112e8565b60405180910390f35b61023960048036038101906102349190610dc9565b610a62565b005b60006102476001610b5a565b905090565b60008061025883610b68565b905060005b61026561023b565b8110156103385781610314600260008481526020019081526020016000206000018054610291906114af565b80601f01602080910402602001604051908101604052809291908181526020018280546102bd906114af565b801561030a5780601f106102df5761010080835404028352916020019161030a565b820191906000526020600020905b8154815290600101906020018083116102ed57829003601f168201915b5050505050610b68565b14156103255760019250505061033f565b808061033090611512565b91505061025d565b5060009150505b919050565b600061034f8261024c565b61038e576040517f08c379a0000000000000000000000000000000000000000000000000000000008152600401610385906112c8565b60405180910390fd5b600061039983610b68565b905060005b6103a661023b565b81101561048e57816104556002600084815260200190815260200160002060000180546103d2906114af565b80601f01602080910402602001604051908101604052809291908181526020018280546103fe906114af565b801561044b5780601f106104205761010080835404028352916020019161044b565b820191906000526020600020905b81548152906001019060200180831161042e57829003601f168201915b5050505050610b68565b141561047b57600260008281526020019081526020016000206001015492505050610491565b808061048690611512565b91505061039e565b50505b919050565b60608060005b6104a461023b565b8110156105bc57600260008281526020019081526020016000206040518060400160405290816000820180546104d9906114af565b80601f0160208091040260200160405190810160405280929190818152602001828054610505906114af565b80156105525780601f1061052757610100808354040283529160200191610552565b820191906000526020600020905b81548152906001019060200180831161053557829003601f168201915b5050505050815260200160018201548152505082828151811061059e577f4e487b7100000000000000000000000000000000000000000000000000000000600052603260045260246000fd5b602002602001018190525080806105b490611512565b91505061049c565b508091505090565b6105cc610b98565b73ffffffffffffffffffffffffffffffffffffffff166105ea61064c565b73ffffffffffffffffffffffffffffffffffffffff1614610640576040517f08c379a0000000000000000000000000000000000000000000000000000000008152600401610637906112a8565b60405180910390fd5b61064a6000610ba0565b565b60008060009054906101000a900473ffffffffffffffffffffffffffffffffffffffff16905090565b6060806000805b61068461023b565b8110156107ae57846002600083815260200190815260200160002060010154141561079b576002600082815260200190815260200160002060000180546106ca906114af565b80601f01602080910402602001604051908101604052809291908181526020018280546106f6906114af565b80156107435780601f1061071857610100808354040283529160200191610743565b820191906000526020600020905b81548152906001019060200180831161072657829003601f168201915b5050505050838381518110610781577f4e487b7100000000000000000000000000000000000000000000000000000000600052603260045260246000fd5b6020026020010181905250818061079790611512565b9250505b80806107a690611512565b91505061067c565b508192505050919050565b6107c1610b98565b73ffffffffffffffffffffffffffffffffffffffff166107df61064c565b73ffffffffffffffffffffffffffffffffffffffff1614610835576040517f08c379a000000000000000000000000000000000000000000000000000000000815260040161082c906112a8565b60405180910390fd5b61083e8261024c565b1561087e576040517f08c379a000000000000000000000000000000000000000000000000000000000815260040161087590611268565b60405180910390fd5b600061088a6001610b5a565b90506040518060400160405280848152602001838152506002600083815260200190815260200160002060008201518160000190805190602001906108d0929190610c7a565b50602082015181600101559050506108e86001610c64565b505050565b6002602052806000526040600020600091509050806000018054610910906114af565b80601f016020809104026020016040519081016040528092919081815260200182805461093c906114af565b80156109895780601f1061095e57610100808354040283529160200191610989565b820191906000526020600020905b81548152906001019060200180831161096c57829003601f168201915b5050505050908060010154905082565b6109a1610d00565b600260008381526020019081526020016000206040518060400160405290816000820180546109cf906114af565b80601f01602080910402602001604051908101604052809291908181526020018280546109fb906114af565b8015610a485780601f10610a1d57610100808354040283529160200191610a48565b820191906000526020600020905b815481529060010190602001808311610a2b57829003601f168201915b505050505081526020016001820154815250509050919050565b610a6a610b98565b73ffffffffffffffffffffffffffffffffffffffff16610a8861064c565b73ffffffffffffffffffffffffffffffffffffffff1614610ade576040517f08c379a0000000000000000000000000000000000000000000000000000000008152600401610ad5906112a8565b60405180910390fd5b600073ffffffffffffffffffffffffffffffffffffffff168173ffffffffffffffffffffffffffffffffffffffff161415610b4e576040517f08c379a0000000000000000000000000000000000000000000000000000000008152600401610b4590611288565b60405180910390fd5b610b5781610ba0565b50565b600081600001549050919050565b600081604051602001610b7b91906111a7565b604051602081830303815290604052805190602001209050919050565b600033905090565b60008060009054906101000a900473ffffffffffffffffffffffffffffffffffffffff169050816000806101000a81548173ffffffffffffffffffffffffffffffffffffffff021916908373ffffffffffffffffffffffffffffffffffffffff1602179055508173ffffffffffffffffffffffffffffffffffffffff168173ffffffffffffffffffffffffffffffffffffffff167f8be0079c531659141344cd1fd0a4f28419497f9722a3daafe3b4186f6b6457e060405160405180910390a35050565b6001816000016000828254019250508190555050565b828054610c86906114af565b90600052602060002090601f016020900481019282610ca85760008555610cef565b82601f10610cc157805160ff1916838001178555610cef565b82800160010185558215610cef579182015b82811115610cee578251825591602001919060010190610cd3565b5b509050610cfc9190610d1a565b5090565b604051806040016040528060608152602001600081525090565b5b80821115610d33576000816000905550600101610d1b565b5090565b6000610d4a610d458461134a565b611325565b905082815260208101848484011115610d6257600080fd5b610d6d84828561146d565b509392505050565b600081359050610d848161170f565b92915050565b600082601f830112610d9b57600080fd5b8135610dab848260208601610d37565b91505092915050565b600081359050610dc381611726565b92915050565b600060208284031215610ddb57600080fd5b6000610de984828501610d75565b91505092915050565b600060208284031215610e0457600080fd5b600082013567ffffffffffffffff811115610e1e57600080fd5b610e2a84828501610d8a565b91505092915050565b60008060408385031215610e4657600080fd5b600083013567ffffffffffffffff811115610e6057600080fd5b610e6c85828601610d8a565b9250506020610e7d85828601610db4565b9150509250929050565b600060208284031215610e9957600080fd5b6000610ea784828501610db4565b91505092915050565b6000610ebc8383610fe0565b905092915050565b6000610ed0838361110f565b905092915050565b610ee181611425565b82525050565b6000610ef28261139b565b610efc81856113d6565b935083602082028501610f0e8561137b565b8060005b85811015610f4a5784840389528151610f2b8582610eb0565b9450610f36836113bc565b925060208a01995050600181019050610f12565b50829750879550505050505092915050565b6000610f67826113a6565b610f7181856113e7565b935083602082028501610f838561138b565b8060005b85811015610fbf5784840389528151610fa08582610ec4565b9450610fab836113c9565b925060208a01995050600181019050610f87565b50829750879550505050505092915050565b610fda81611437565b82525050565b6000610feb826113b1565b610ff581856113f8565b935061100581856020860161147c565b61100e816115e8565b840191505092915050565b6000611024826113b1565b61102e8185611409565b935061103e81856020860161147c565b611047816115e8565b840191505092915050565b600061105d826113b1565b611067818561141a565b935061107781856020860161147c565b80840191505092915050565b6000611090602383611409565b915061109b826115f9565b604082019050919050565b60006110b3602683611409565b91506110be82611648565b604082019050919050565b60006110d6602083611409565b91506110e182611697565b602082019050919050565b60006110f9602283611409565b9150611104826116c0565b604082019050919050565b6000604083016000830151848203600086015261112c8282610fe0565b91505060208301516111416020860182611189565b508091505092915050565b600060408301600083015184820360008601526111698282610fe0565b915050602083015161117e6020860182611189565b508091505092915050565b61119281611463565b82525050565b6111a181611463565b82525050565b60006111b38284611052565b915081905092915050565b60006020820190506111d36000830184610ed8565b92915050565b600060208201905081810360008301526111f38184610ee7565b905092915050565b600060208201905081810360008301526112158184610f5c565b905092915050565b60006020820190506112326000830184610fd1565b92915050565b600060408201905081810360008301526112528185611019565b90506112616020830184611198565b9392505050565b6000602082019050818103600083015261128181611083565b9050919050565b600060208201905081810360008301526112a1816110a6565b9050919050565b600060208201905081810360008301526112c1816110c9565b9050919050565b600060208201905081810360008301526112e1816110ec565b9050919050565b60006020820190508181036000830152611302818461114c565b905092915050565b600060208201905061131f6000830184611198565b92915050565b600061132f611340565b905061133b82826114e1565b919050565b6000604051905090565b600067ffffffffffffffff821115611365576113646115b9565b5b61136e826115e8565b9050602081019050919050565b6000819050602082019050919050565b6000819050602082019050919050565b600081519050919050565b600081519050919050565b600081519050919050565b6000602082019050919050565b6000602082019050919050565b600082825260208201905092915050565b600082825260208201905092915050565b600082825260208201905092915050565b600082825260208201905092915050565b600081905092915050565b600061143082611443565b9050919050565b60008115159050919050565b600073ffffffffffffffffffffffffffffffffffffffff82169050919050565b6000819050919050565b82818337600083830152505050565b60005b8381101561149a57808201518184015260208101905061147f565b838111156114a9576000848401525b50505050565b600060028204905060018216806114c757607f821691505b602082108114156114db576114da61158a565b5b50919050565b6114ea826115e8565b810181811067ffffffffffffffff82111715611509576115086115b9565b5b80604052505050565b600061151d82611463565b91507fffffffffffffffffffffffffffffffffffffffffffffffffffffffffffffffff8214156115505761154f61155b565b5b600182019050919050565b7f4e487b7100000000000000000000000000000000000000000000000000000000600052601160045260246000fd5b7f4e487b7100000000000000000000000000000000000000000000000000000000600052602260045260246000fd5b7f4e487b7100000000000000000000000000000000000000000000000000000000600052604160045260246000fd5b6000601f19601f8301169050919050565b7f546869732048617368204964206861766520616c726561647920766f7465642060008201527f2121210000000000000000000000000000000000000000000000000000000000602082015250565b7f4f776e61626c653a206e6577206f776e657220697320746865207a65726f206160008201527f6464726573730000000000000000000000000000000000000000000000000000602082015250565b7f4f776e61626c653a2063616c6c6572206973206e6f7420746865206f776e6572600082015250565b7f54686973204861736820496420686176656e277420766f74656420796574202160008201527f2121000000000000000000000000000000000000000000000000000000000000602082015250565b61171881611425565b811461172357600080fd5b50565b61172f81611463565b811461173a57600080fd5b5056fea26469706673582212204a831485bce8797386615b1de3d39cae20935322379422470db8afa26e0dd8c664736f6c63430008010033",
  "linkReferences": {},
  "deployedLinkReferences": {}
}