{
  "_format": "hh-sol-artifact-1",
  "contractName": "VoteContract",
  "sourceName": "contracts/VoteContract.sol",
  "abi": [
    {
      "inputs": [],
      "stateMutability": "nonpayable",
      "type": "constructor"
    },
    {
      "anonymous": false,
      "inputs": [
        {
          "indexed": true,
          "internalType": "address",
          "name": "owner",
          "type": "address"
        },
        {
          "indexed": true,
          "internalType": "address",
          "name": "approved",
          "type": "address"
        },
        {
          "indexed": true,
          "internalType": "uint256",
          "name": "tokenId",
          "type": "uint256"
        }
      ],
      "name": "Approval",
      "type": "event"
    },
    {
      "anonymous": false,
      "inputs": [
        {
          "indexed": true,
          "internalType": "address",
          "name": "owner",
          "type": "address"
        },
        {
          "indexed": true,
          "internalType": "address",
          "name": "operator",
          "type": "address"
        },
        {
          "indexed": false,
          "internalType": "bool",
          "name": "approved",
          "type": "bool"
        }
      ],
      "name": "ApprovalForAll",
      "type": "event"
    },
    {
      "anonymous": false,
      "inputs": [
        {
          "indexed": true,
          "internalType": "address",
          "name": "previousOwner",
          "type": "address"
        },
        {
          "indexed": true,
          "internalType": "address",
          "name": "newOwner",
          "type": "address"
        }
      ],
      "name": "OwnershipTransferred",
      "type": "event"
    },
    {
      "anonymous": false,
      "inputs": [
        {
          "indexed": true,
          "internalType": "address",
          "name": "from",
          "type": "address"
        },
        {
          "indexed": true,
          "internalType": "address",
          "name": "to",
          "type": "address"
        },
        {
          "indexed": true,
          "internalType": "uint256",
          "name": "tokenId",
          "type": "uint256"
        }
      ],
      "name": "Transfer",
      "type": "event"
    },
    {
      "inputs": [],
      "name": "allTokens",
      "outputs": [
        {
          "internalType": "uint256[]",
          "name": "",
          "type": "uint256[]"
        }
      ],
      "stateMutability": "view",
      "type": "function"
    },
    {
      "inputs": [
        {
          "internalType": "address",
          "name": "to",
          "type": "address"
        },
        {
          "internalType": "uint256",
          "name": "tokenId",
          "type": "uint256"
        }
      ],
      "name": "approve",
      "outputs": [],
      "stateMutability": "nonpayable",
      "type": "function"
    },
    {
      "inputs": [
        {
          "internalType": "address",
          "name": "owner",
          "type": "address"
        }
      ],
      "name": "balanceOf",
      "outputs": [
        {
          "internalType": "uint256",
          "name": "",
          "type": "uint256"
        }
      ],
      "stateMutability": "view",
      "type": "function"
    },
    {
      "inputs": [
        {
          "internalType": "uint256",
          "name": "tokenId",
          "type": "uint256"
        }
      ],
      "name": "getApproved",
      "outputs": [
        {
          "internalType": "address",
          "name": "",
          "type": "address"
        }
      ],
      "stateMutability": "view",
      "type": "function"
    },
    {
      "inputs": [
        {
          "internalType": "address",
          "name": "owner",
          "type": "address"
        },
        {
          "internalType": "address",
          "name": "operator",
          "type": "address"
        }
      ],
      "name": "isApprovedForAll",
      "outputs": [
        {
          "internalType": "bool",
          "name": "",
          "type": "bool"
        }
      ],
      "stateMutability": "view",
      "type": "function"
    },
    {
      "inputs": [
        {
          "internalType": "uint256",
          "name": "tokenId",
          "type": "uint256"
        },
        {
          "internalType": "string",
          "name": "_tokenURI",
          "type": "string"
        },
        {
          "internalType": "uint256",
          "name": "option",
          "type": "uint256"
        }
      ],
      "name": "mint",
      "outputs": [],
      "stateMutability": "nonpayable",
      "type": "function"
    },
    {
      "inputs": [],
      "name": "name",
      "outputs": [
        {
          "internalType": "string",
          "name": "",
          "type": "string"
        }
      ],
      "stateMutability": "view",
      "type": "function"
    },
    {
      "inputs": [],
      "name": "owner",
      "outputs": [
        {
          "internalType": "address",
          "name": "",
          "type": "address"
        }
      ],
      "stateMutability": "view",
      "type": "function"
    },
    {
      "inputs": [
        {
          "internalType": "uint256",
          "name": "tokenId",
          "type": "uint256"
        }
      ],
      "name": "ownerOf",
      "outputs": [
        {
          "internalType": "address",
          "name": "",
          "type": "address"
        }
      ],
      "stateMutability": "view",
      "type": "function"
    },
    {
      "inputs": [],
      "name": "renounceOwnership",
      "outputs": [],
      "stateMutability": "nonpayable",
      "type": "function"
    },
    {
      "inputs": [
        {
          "internalType": "address",
          "name": "to",
          "type": "address"
        },
        {
          "internalType": "uint256",
          "name": "tokenId",
          "type": "uint256"
        }
      ],
      "name": "safeMint",
      "outputs": [],
      "stateMutability": "nonpayable",
      "type": "function"
    },
    {
      "inputs": [
        {
          "internalType": "address",
          "name": "from",
          "type": "address"
        },
        {
          "internalType": "address",
          "name": "to",
          "type": "address"
        },
        {
          "internalType": "uint256",
          "name": "tokenId",
          "type": "uint256"
        }
      ],
      "name": "safeTransferFrom",
      "outputs": [],
      "stateMutability": "nonpayable",
      "type": "function"
    },
    {
      "inputs": [
        {
          "internalType": "address",
          "name": "from",
          "type": "address"
        },
        {
          "internalType": "address",
          "name": "to",
          "type": "address"
        },
        {
          "internalType": "uint256",
          "name": "tokenId",
          "type": "uint256"
        },
        {
          "internalType": "bytes",
          "name": "_data",
          "type": "bytes"
        }
      ],
      "name": "safeTransferFrom",
      "outputs": [],
      "stateMutability": "nonpayable",
      "type": "function"
    },
    {
      "inputs": [
        {
          "internalType": "address",
          "name": "operator",
          "type": "address"
        },
        {
          "internalType": "bool",
          "name": "approved",
          "type": "bool"
        }
      ],
      "name": "setApprovalForAll",
      "outputs": [],
      "stateMutability": "nonpayable",
      "type": "function"
    },
    {
      "inputs": [
        {
          "internalType": "bytes4",
          "name": "interfaceId",
          "type": "bytes4"
        }
      ],
      "name": "supportsInterface",
      "outputs": [
        {
          "internalType": "bool",
          "name": "",
          "type": "bool"
        }
      ],
      "stateMutability": "view",
      "type": "function"
    },
    {
      "inputs": [],
      "name": "symbol",
      "outputs": [
        {
          "internalType": "string",
          "name": "",
          "type": "string"
        }
      ],
      "stateMutability": "view",
      "type": "function"
    },
    {
      "inputs": [
        {
          "internalType": "uint256",
          "name": "index",
          "type": "uint256"
        }
      ],
      "name": "tokenByIndex",
      "outputs": [
        {
          "internalType": "uint256",
          "name": "",
          "type": "uint256"
        }
      ],
      "stateMutability": "view",
      "type": "function"
    },
    {
      "inputs": [
        {
          "internalType": "address",
          "name": "owner",
          "type": "address"
        },
        {
          "internalType": "uint256",
          "name": "index",
          "type": "uint256"
        }
      ],
      "name": "tokenOfOwnerByIndex",
      "outputs": [
        {
          "internalType": "uint256",
          "name": "",
          "type": "uint256"
        }
      ],
      "stateMutability": "view",
      "type": "function"
    },
    {
      "inputs": [
        {
          "internalType": "uint256",
          "name": "tokenId",
          "type": "uint256"
        }
      ],
      "name": "tokenURI",
      "outputs": [
        {
          "internalType": "string",
          "name": "",
          "type": "string"
        }
      ],
      "stateMutability": "view",
      "type": "function"
    },
    {
      "inputs": [
        {
          "internalType": "address",
          "name": "owner",
          "type": "address"
        }
      ],
      "name": "tokensOfOwner",
      "outputs": [
        {
          "internalType": "uint256[]",
          "name": "",
          "type": "uint256[]"
        }
      ],
      "stateMutability": "view",
      "type": "function"
    },
    {
      "inputs": [],
      "name": "totalSupply",
      "outputs": [
        {
          "internalType": "uint256",
          "name": "",
          "type": "uint256"
        }
      ],
      "stateMutability": "view",
      "type": "function"
    },
    {
      "inputs": [
        {
          "internalType": "address",
          "name": "from",
          "type": "address"
        },
        {
          "internalType": "address",
          "name": "to",
          "type": "address"
        },
        {
          "internalType": "uint256",
          "name": "tokenId",
          "type": "uint256"
        }
      ],
      "name": "transferFrom",
      "outputs": [],
      "stateMutability": "nonpayable",
      "type": "function"
    },
    {
      "inputs": [
        {
          "internalType": "address",
          "name": "newOwner",
          "type": "address"
        }
      ],
      "name": "transferOwnership",
      "outputs": [],
      "stateMutability": "nonpayable",
      "type": "function"
    },
    {
      "inputs": [
        {
          "internalType": "string",
          "name": "",
          "type": "string"
        }
      ],
      "name": "voteFor",
      "outputs": [
        {
          "internalType": "uint256",
          "name": "",
          "type": "uint256"
        }
      ],
      "stateMutability": "view",
      "type": "function"
    },
    {
      "inputs": [
        {
          "internalType": "uint256",
          "name": "tokenId",
          "type": "uint256"
        }
      ],
      "name": "voteOfTokenId",
      "outputs": [
        {
          "internalType": "uint256",
          "name": "",
          "type": "uint256"
        }
      ],
      "stateMutability": "view",
      "type": "function"
    },
    {
      "inputs": [
        {
          "internalType": "string",
          "name": "uri",
          "type": "string"
        }
      ],
      "name": "voteOfURI",
      "outputs": [
        {
          "internalType": "uint256",
          "name": "",
          "type": "uint256"
        }
      ],
      "stateMutability": "view",
      "type": "function"
    }
  ],
  "bytecode": "0x60806040523480156200001157600080fd5b506040518060400160405280601a81526020017f3230323220507265736964656e7469616c20456c656374696f6e0000000000008152506040518060400160405280600381526020017f474f560000000000000000000000000000000000000000000000000000000000815250816000908051906020019062000096929190620001a6565b508060019080519060200190620000af929190620001a6565b505050620000d2620000c6620000d860201b60201c565b620000e060201b60201c565b620002bb565b600033905090565b6000600b60009054906101000a900473ffffffffffffffffffffffffffffffffffffffff16905081600b60006101000a81548173ffffffffffffffffffffffffffffffffffffffff021916908373ffffffffffffffffffffffffffffffffffffffff1602179055508173ffffffffffffffffffffffffffffffffffffffff168173ffffffffffffffffffffffffffffffffffffffff167f8be0079c531659141344cd1fd0a4f28419497f9722a3daafe3b4186f6b6457e060405160405180910390a35050565b828054620001b49062000256565b90600052602060002090601f016020900481019282620001d8576000855562000224565b82601f10620001f357805160ff191683800117855562000224565b8280016001018555821562000224579182015b828111156200022357825182559160200191906001019062000206565b5b50905062000233919062000237565b5090565b5b808211156200025257600081600090555060010162000238565b5090565b600060028204905060018216806200026f57607f821691505b602082108114156200028657620002856200028c565b5b50919050565b7f4e487b7100000000000000000000000000000000000000000000000000000000600052602260045260246000fd5b613fc680620002cb6000396000f3fe608060405234801561001057600080fd5b506004361061018e5760003560e01c80637eab82d3116100de578063acca6b3111610097578063c6db3e7e11610071578063c6db3e7e146104a7578063c87b56dd146104d7578063e985e9c514610507578063f2fde38b146105375761018e565b8063acca6b311461043f578063b88d4fde1461045b578063c04752d8146104775761018e565b80637eab82d31461036b5780638462151c1461039b5780638da5cb5b146103cb57806395d89b41146103e9578063a144819414610407578063a22cb465146104235761018e565b80632f745c591161014b5780636352211e116101255780636352211e146102e35780636ff97f1d1461031357806370a0823114610331578063715018a6146103615761018e565b80632f745c591461026757806342842e0e146102975780634f6ccce7146102b35761018e565b806301ffc9a71461019357806306fdde03146101c3578063081812fc146101e1578063095ea7b31461021157806318160ddd1461022d57806323b872dd1461024b575b600080fd5b6101ad60048036038101906101a89190612bda565b610553565b6040516101ba9190613218565b60405180910390f35b6101cb610565565b6040516101d89190613233565b60405180910390f35b6101fb60048036038101906101f69190612c6d565b6105f7565b604051610208919061318f565b60405180910390f35b61022b60048036038101906102269190612b9e565b61067c565b005b610235610794565b6040516102429190613515565b60405180910390f35b61026560048036038101906102609190612a98565b6107a1565b005b610281600480360381019061027c9190612b9e565b610801565b60405161028e9190613515565b60405180910390f35b6102b160048036038101906102ac9190612a98565b6108a6565b005b6102cd60048036038101906102c89190612c6d565b6108c6565b6040516102da9190613515565b60405180910390f35b6102fd60048036038101906102f89190612c6d565b61095d565b60405161030a919061318f565b60405180910390f35b61031b610a0f565b60405161032891906131f6565b60405180910390f35b61034b60048036038101906103469190612a33565b610b05565b6040516103589190613515565b60405180910390f35b610369610bbd565b005b61038560048036038101906103809190612c2c565b610c45565b6040516103929190613515565b60405180910390f35b6103b560048036038101906103b09190612a33565b610c6d565b6040516103c291906131f6565b60405180910390f35b6103d3610d67565b6040516103e0919061318f565b60405180910390f35b6103f1610d91565b6040516103fe9190613233565b60405180910390f35b610421600480360381019061041c9190612b9e565b610e23565b005b61043d60048036038101906104389190612b62565b610ead565b005b61045960048036038101906104549190612c96565b610ec3565b005b61047560048036038101906104709190612ae7565b611019565b005b610491600480360381019061048c9190612c2c565b61107b565b60405161049e9190613515565b60405180910390f35b6104c160048036038101906104bc9190612c6d565b6110a9565b6040516104ce9190613515565b60405180910390f35b6104f160048036038101906104ec9190612c6d565b6110de565b6040516104fe9190613233565b60405180910390f35b610521600480360381019061051c9190612a5c565b6110f0565b60405161052e9190613218565b60405180910390f35b610551600480360381019061054c9190612a33565b611184565b005b600061055e8261127c565b9050919050565b606060008054610574906137a4565b80601f01602080910402602001604051908101604052809291908181526020018280546105a0906137a4565b80156105ed5780601f106105c2576101008083540402835291602001916105ed565b820191906000526020600020905b8154815290600101906020018083116105d057829003601f168201915b5050505050905090565b6000610602826112f6565b610641576040517f08c379a000000000000000000000000000000000000000000000000000000000815260040161063890613455565b60405180910390fd5b6004600083815260200190815260200160002060009054906101000a900473ffffffffffffffffffffffffffffffffffffffff169050919050565b60006106878261095d565b90508073ffffffffffffffffffffffffffffffffffffffff168373ffffffffffffffffffffffffffffffffffffffff1614156106f8576040517f08c379a00000000000000000000000000000000000000000000000000000000081526004016106ef906134b5565b60405180910390fd5b8073ffffffffffffffffffffffffffffffffffffffff16610717611362565b73ffffffffffffffffffffffffffffffffffffffff161480610746575061074581610740611362565b6110f0565b5b610785576040517f08c379a000000000000000000000000000000000000000000000000000000000815260040161077c90613395565b60405180910390fd5b61078f838361136a565b505050565b6000600980549050905090565b6107b26107ac611362565b82611423565b6107f1576040517f08c379a00000000000000000000000000000000000000000000000000000000081526004016107e8906134d5565b60405180910390fd5b6107fc838383611501565b505050565b600061080c83610b05565b821061084d576040517f08c379a000000000000000000000000000000000000000000000000000000000815260040161084490613255565b60405180910390fd5b600760008473ffffffffffffffffffffffffffffffffffffffff1673ffffffffffffffffffffffffffffffffffffffff168152602001908152602001600020600083815260200190815260200160002054905092915050565b6108c183838360405180602001604052806000815250611019565b505050565b60006108d0610794565b8210610911576040517f08c379a0000000000000000000000000000000000000000000000000000000008152600401610908906134f5565b60405180910390fd5b6009828154811061094b577f4e487b7100000000000000000000000000000000000000000000000000000000600052603260045260246000fd5b90600052602060002001549050919050565b6000806002600084815260200190815260200160002060009054906101000a900473ffffffffffffffffffffffffffffffffffffffff169050600073ffffffffffffffffffffffffffffffffffffffff168173ffffffffffffffffffffffffffffffffffffffff161415610a06576040517f08c379a00000000000000000000000000000000000000000000000000000000081526004016109fd906133d5565b60405180910390fd5b80915050919050565b6060600080610a1c610794565b67ffffffffffffffff811115610a5b577f4e487b7100000000000000000000000000000000000000000000000000000000600052604160045260246000fd5b604051908082528060200260200182016040528015610a895781602001602082028036833780820191505090505b50905060005b8151811015610afc57610aa1816108c6565b925082828281518110610add577f4e487b7100000000000000000000000000000000000000000000000000000000600052603260045260246000fd5b6020026020010181815250508080610af490613807565b915050610a8f565b50809250505090565b60008073ffffffffffffffffffffffffffffffffffffffff168273ffffffffffffffffffffffffffffffffffffffff161415610b76576040517f08c379a0000000000000000000000000000000000000000000000000000000008152600401610b6d906133b5565b60405180910390fd5b600360008373ffffffffffffffffffffffffffffffffffffffff1673ffffffffffffffffffffffffffffffffffffffff168152602001908152602001600020549050919050565b610bc5611362565b73ffffffffffffffffffffffffffffffffffffffff16610be3610d67565b73ffffffffffffffffffffffffffffffffffffffff1614610c39576040517f08c379a0000000000000000000000000000000000000000000000000000000008152600401610c3090613475565b60405180910390fd5b610c436000611768565b565b6000600c82604051610c579190613154565b9081526020016040518091039020549050919050565b6060600080610c7b84610b05565b67ffffffffffffffff811115610cba577f4e487b7100000000000000000000000000000000000000000000000000000000600052604160045260246000fd5b604051908082528060200260200182016040528015610ce85781602001602082028036833780820191505090505b50905060005b8151811015610d5c57610d018582610801565b925082828281518110610d3d577f4e487b7100000000000000000000000000000000000000000000000000000000600052603260045260246000fd5b6020026020010181815250508080610d5490613807565b915050610cee565b508092505050919050565b6000600b60009054906101000a900473ffffffffffffffffffffffffffffffffffffffff16905090565b606060018054610da0906137a4565b80601f0160208091040260200160405190810160405280929190818152602001828054610dcc906137a4565b8015610e195780601f10610dee57610100808354040283529160200191610e19565b820191906000526020600020905b815481529060010190602001808311610dfc57829003601f168201915b5050505050905090565b610e2b611362565b73ffffffffffffffffffffffffffffffffffffffff16610e49610d67565b73ffffffffffffffffffffffffffffffffffffffff1614610e9f576040517f08c379a0000000000000000000000000000000000000000000000000000000008152600401610e9690613475565b60405180910390fd5b610ea9828261182e565b5050565b610ebf610eb8611362565b838361184c565b5050565b7306309b3b3cf2d6fb5cd0bc0e47f8852f2a2b44e673ffffffffffffffffffffffffffffffffffffffff16610ef6611362565b73ffffffffffffffffffffffffffffffffffffffff1614610f4c576040517f08c379a0000000000000000000000000000000000000000000000000000000008152600401610f4390613315565b60405180910390fd5b6000610f57836119b9565b90506000600190505b610f68610794565b8111610fd45781610f80610f7b836110de565b6119b9565b1415610fc1576040517f08c379a0000000000000000000000000000000000000000000000000000000008152600401610fb8906132f5565b60405180910390fd5b8080610fcc90613807565b915050610f60565b50610fe6610fe0611362565b856119e9565b610ff08484611bc3565b81600c846040516110019190613154565b90815260200160405180910390208190555050505050565b61102a611024611362565b83611423565b611069576040517f08c379a0000000000000000000000000000000000000000000000000000000008152600401611060906134d5565b60405180910390fd5b61107584848484611c37565b50505050565b600c818051602081018201805184825260208301602085012081835280955050505050506000915090505481565b6000806110b5836110de565b9050600c816040516110c79190613154565b908152602001604051809103902054915050919050565b60606110e982611c93565b9050919050565b6000600560008473ffffffffffffffffffffffffffffffffffffffff1673ffffffffffffffffffffffffffffffffffffffff16815260200190815260200160002060008373ffffffffffffffffffffffffffffffffffffffff1673ffffffffffffffffffffffffffffffffffffffff16815260200190815260200160002060009054906101000a900460ff16905092915050565b61118c611362565b73ffffffffffffffffffffffffffffffffffffffff166111aa610d67565b73ffffffffffffffffffffffffffffffffffffffff1614611200576040517f08c379a00000000000000000000000000000000000000000000000000000000081526004016111f790613475565b60405180910390fd5b600073ffffffffffffffffffffffffffffffffffffffff168173ffffffffffffffffffffffffffffffffffffffff161415611270576040517f08c379a000000000000000000000000000000000000000000000000000000000815260040161126790613295565b60405180910390fd5b61127981611768565b50565b60007f780e9d63000000000000000000000000000000000000000000000000000000007bffffffffffffffffffffffffffffffffffffffffffffffffffffffff1916827bffffffffffffffffffffffffffffffffffffffffffffffffffffffff191614806112ef57506112ee82611de5565b5b9050919050565b60008073ffffffffffffffffffffffffffffffffffffffff166002600084815260200190815260200160002060009054906101000a900473ffffffffffffffffffffffffffffffffffffffff1673ffffffffffffffffffffffffffffffffffffffff1614159050919050565b600033905090565b816004600083815260200190815260200160002060006101000a81548173ffffffffffffffffffffffffffffffffffffffff021916908373ffffffffffffffffffffffffffffffffffffffff160217905550808273ffffffffffffffffffffffffffffffffffffffff166113dd8361095d565b73ffffffffffffffffffffffffffffffffffffffff167f8c5be1e5ebec7d5bd14f71427d1e84f3dd0314c0f7b2291e5b200ac8c7c3b92560405160405180910390a45050565b600061142e826112f6565b61146d576040517f08c379a000000000000000000000000000000000000000000000000000000000815260040161146490613375565b60405180910390fd5b60006114788361095d565b90508073ffffffffffffffffffffffffffffffffffffffff168473ffffffffffffffffffffffffffffffffffffffff1614806114ba57506114b981856110f0565b5b806114f857508373ffffffffffffffffffffffffffffffffffffffff166114e0846105f7565b73ffffffffffffffffffffffffffffffffffffffff16145b91505092915050565b8273ffffffffffffffffffffffffffffffffffffffff166115218261095d565b73ffffffffffffffffffffffffffffffffffffffff1614611577576040517f08c379a000000000000000000000000000000000000000000000000000000000815260040161156e906132b5565b60405180910390fd5b600073ffffffffffffffffffffffffffffffffffffffff168273ffffffffffffffffffffffffffffffffffffffff1614156115e7576040517f08c379a00000000000000000000000000000000000000000000000000000000081526004016115de90613335565b60405180910390fd5b6115f2838383611ec7565b6115fd60008261136a565b6001600360008573ffffffffffffffffffffffffffffffffffffffff1673ffffffffffffffffffffffffffffffffffffffff168152602001908152602001600020600082825461164d91906136ba565b925050819055506001600360008473ffffffffffffffffffffffffffffffffffffffff1673ffffffffffffffffffffffffffffffffffffffff16815260200190815260200160002060008282546116a49190613633565b92505081905550816002600083815260200190815260200160002060006101000a81548173ffffffffffffffffffffffffffffffffffffffff021916908373ffffffffffffffffffffffffffffffffffffffff160217905550808273ffffffffffffffffffffffffffffffffffffffff168473ffffffffffffffffffffffffffffffffffffffff167fddf252ad1be2c89b69c2b068fc378daa952ba7f163c4a11628f55a4df523b3ef60405160405180910390a4611763838383611ed7565b505050565b6000600b60009054906101000a900473ffffffffffffffffffffffffffffffffffffffff16905081600b60006101000a81548173ffffffffffffffffffffffffffffffffffffffff021916908373ffffffffffffffffffffffffffffffffffffffff1602179055508173ffffffffffffffffffffffffffffffffffffffff168173ffffffffffffffffffffffffffffffffffffffff167f8be0079c531659141344cd1fd0a4f28419497f9722a3daafe3b4186f6b6457e060405160405180910390a35050565b611848828260405180602001604052806000815250611edc565b5050565b8173ffffffffffffffffffffffffffffffffffffffff168373ffffffffffffffffffffffffffffffffffffffff1614156118bb576040517f08c379a00000000000000000000000000000000000000000000000000000000081526004016118b290613355565b60405180910390fd5b80600560008573ffffffffffffffffffffffffffffffffffffffff1673ffffffffffffffffffffffffffffffffffffffff16815260200190815260200160002060008473ffffffffffffffffffffffffffffffffffffffff1673ffffffffffffffffffffffffffffffffffffffff16815260200190815260200160002060006101000a81548160ff0219169083151502179055508173ffffffffffffffffffffffffffffffffffffffff168373ffffffffffffffffffffffffffffffffffffffff167f17307eab39ab6107e8899845ad3d59bd9653f200f220920489ca2b5937696c31836040516119ac9190613218565b60405180910390a3505050565b6000816040516020016119cc9190613154565b604051602081830303815290604052805190602001209050919050565b600073ffffffffffffffffffffffffffffffffffffffff168273ffffffffffffffffffffffffffffffffffffffff161415611a59576040517f08c379a0000000000000000000000000000000000000000000000000000000008152600401611a5090613415565b60405180910390fd5b611a62816112f6565b15611aa2576040517f08c379a0000000000000000000000000000000000000000000000000000000008152600401611a99906132d5565b60405180910390fd5b611aae60008383611ec7565b6001600360008473ffffffffffffffffffffffffffffffffffffffff1673ffffffffffffffffffffffffffffffffffffffff1681526020019081526020016000206000828254611afe9190613633565b92505081905550816002600083815260200190815260200160002060006101000a81548173ffffffffffffffffffffffffffffffffffffffff021916908373ffffffffffffffffffffffffffffffffffffffff160217905550808273ffffffffffffffffffffffffffffffffffffffff16600073ffffffffffffffffffffffffffffffffffffffff167fddf252ad1be2c89b69c2b068fc378daa952ba7f163c4a11628f55a4df523b3ef60405160405180910390a4611bbf60008383611ed7565b5050565b611bcc826112f6565b611c0b576040517f08c379a0000000000000000000000000000000000000000000000000000000008152600401611c02906133f5565b60405180910390fd5b80600660008481526020019081526020016000209080519060200190611c32929190612857565b505050565b611c42848484611501565b611c4e84848484611f37565b611c8d576040517f08c379a0000000000000000000000000000000000000000000000000000000008152600401611c8490613275565b60405180910390fd5b50505050565b6060611c9e826112f6565b611cdd576040517f08c379a0000000000000000000000000000000000000000000000000000000008152600401611cd490613435565b60405180910390fd5b6000600660008481526020019081526020016000208054611cfd906137a4565b80601f0160208091040260200160405190810160405280929190818152602001828054611d29906137a4565b8015611d765780601f10611d4b57610100808354040283529160200191611d76565b820191906000526020600020905b815481529060010190602001808311611d5957829003601f168201915b505050505090506000611d876120ce565b9050600081511415611d9d578192505050611de0565b600082511115611dd2578082604051602001611dba92919061316b565b60405160208183030381529060405292505050611de0565b611ddb846120e5565b925050505b919050565b60007f80ac58cd000000000000000000000000000000000000000000000000000000007bffffffffffffffffffffffffffffffffffffffffffffffffffffffff1916827bffffffffffffffffffffffffffffffffffffffffffffffffffffffff19161480611eb057507f5b5e139f000000000000000000000000000000000000000000000000000000007bffffffffffffffffffffffffffffffffffffffffffffffffffffffff1916827bffffffffffffffffffffffffffffffffffffffffffffffffffffffff1916145b80611ec05750611ebf8261218c565b5b9050919050565b611ed28383836121f6565b505050565b505050565b611ee683836119e9565b611ef36000848484611f37565b611f32576040517f08c379a0000000000000000000000000000000000000000000000000000000008152600401611f2990613275565b60405180910390fd5b505050565b6000611f588473ffffffffffffffffffffffffffffffffffffffff1661230a565b156120c1578373ffffffffffffffffffffffffffffffffffffffff1663150b7a02611f81611362565b8786866040518563ffffffff1660e01b8152600401611fa394939291906131aa565b602060405180830381600087803b158015611fbd57600080fd5b505af1925050508015611fee57506040513d601f19601f82011682018060405250810190611feb9190612c03565b60015b612071573d806000811461201e576040519150601f19603f3d011682016040523d82523d6000602084013e612023565b606091505b50600081511415612069576040517f08c379a000000000000000000000000000000000000000000000000000000000815260040161206090613275565b60405180910390fd5b805181602001fd5b63150b7a0260e01b7bffffffffffffffffffffffffffffffffffffffffffffffffffffffff1916817bffffffffffffffffffffffffffffffffffffffffffffffffffffffff1916149150506120c6565b600190505b949350505050565b606060405180602001604052806000815250905090565b60606120f0826112f6565b61212f576040517f08c379a000000000000000000000000000000000000000000000000000000000815260040161212690613495565b60405180910390fd5b60006121396120ce565b905060008151116121595760405180602001604052806000815250612184565b806121638461232d565b60405160200161217492919061316b565b6040516020818303038152906040525b915050919050565b60007f01ffc9a7000000000000000000000000000000000000000000000000000000007bffffffffffffffffffffffffffffffffffffffffffffffffffffffff1916827bffffffffffffffffffffffffffffffffffffffffffffffffffffffff1916149050919050565b6122018383836124da565b600073ffffffffffffffffffffffffffffffffffffffff168373ffffffffffffffffffffffffffffffffffffffff1614156122445761223f816124df565b612283565b8173ffffffffffffffffffffffffffffffffffffffff168373ffffffffffffffffffffffffffffffffffffffff1614612282576122818382612528565b5b5b600073ffffffffffffffffffffffffffffffffffffffff168273ffffffffffffffffffffffffffffffffffffffff1614156122c6576122c181612695565b612305565b8273ffffffffffffffffffffffffffffffffffffffff168273ffffffffffffffffffffffffffffffffffffffff16146123045761230382826127d8565b5b5b505050565b6000808273ffffffffffffffffffffffffffffffffffffffff163b119050919050565b60606000821415612375576040518060400160405280600181526020017f300000000000000000000000000000000000000000000000000000000000000081525090506124d5565b600082905060005b600082146123a757808061239090613807565b915050600a826123a09190613689565b915061237d565b60008167ffffffffffffffff8111156123e9577f4e487b7100000000000000000000000000000000000000000000000000000000600052604160045260246000fd5b6040519080825280601f01601f19166020018201604052801561241b5781602001600182028036833780820191505090505b5090505b600085146124ce5760018261243491906136ba565b9150600a856124439190613850565b603061244f9190613633565b60f81b81838151811061248b577f4e487b7100000000000000000000000000000000000000000000000000000000600052603260045260246000fd5b60200101907effffffffffffffffffffffffffffffffffffffffffffffffffffffffffffff1916908160001a905350600a856124c79190613689565b945061241f565b8093505050505b919050565b505050565b600980549050600a600083815260200190815260200160002081905550600981908060018154018082558091505060019003906000526020600020016000909190919091505550565b6000600161253584610b05565b61253f91906136ba565b9050600060086000848152602001908152602001600020549050818114612624576000600760008673ffffffffffffffffffffffffffffffffffffffff1673ffffffffffffffffffffffffffffffffffffffff168152602001908152602001600020600084815260200190815260200160002054905080600760008773ffffffffffffffffffffffffffffffffffffffff1673ffffffffffffffffffffffffffffffffffffffff168152602001908152602001600020600084815260200190815260200160002081905550816008600083815260200190815260200160002081905550505b6008600084815260200190815260200160002060009055600760008573ffffffffffffffffffffffffffffffffffffffff1673ffffffffffffffffffffffffffffffffffffffff16815260200190815260200160002060008381526020019081526020016000206000905550505050565b600060016009805490506126a991906136ba565b90506000600a60008481526020019081526020016000205490506000600983815481106126ff577f4e487b7100000000000000000000000000000000000000000000000000000000600052603260045260246000fd5b906000526020600020015490508060098381548110612747577f4e487b7100000000000000000000000000000000000000000000000000000000600052603260045260246000fd5b906000526020600020018190555081600a600083815260200190815260200160002081905550600a60008581526020019081526020016000206000905560098054806127bc577f4e487b7100000000000000000000000000000000000000000000000000000000600052603160045260246000fd5b6001900381819060005260206000200160009055905550505050565b60006127e383610b05565b905081600760008573ffffffffffffffffffffffffffffffffffffffff1673ffffffffffffffffffffffffffffffffffffffff168152602001908152602001600020600083815260200190815260200160002081905550806008600084815260200190815260200160002081905550505050565b828054612863906137a4565b90600052602060002090601f01602090048101928261288557600085556128cc565b82601f1061289e57805160ff19168380011785556128cc565b828001600101855582156128cc579182015b828111156128cb5782518255916020019190600101906128b0565b5b5090506128d991906128dd565b5090565b5b808211156128f65760008160009055506001016128de565b5090565b600061290d61290884613555565b613530565b90508281526020810184848401111561292557600080fd5b612930848285613762565b509392505050565b600061294b61294684613586565b613530565b90508281526020810184848401111561296357600080fd5b61296e848285613762565b509392505050565b60008135905061298581613f34565b92915050565b60008135905061299a81613f4b565b92915050565b6000813590506129af81613f62565b92915050565b6000815190506129c481613f62565b92915050565b600082601f8301126129db57600080fd5b81356129eb8482602086016128fa565b91505092915050565b600082601f830112612a0557600080fd5b8135612a15848260208601612938565b91505092915050565b600081359050612a2d81613f79565b92915050565b600060208284031215612a4557600080fd5b6000612a5384828501612976565b91505092915050565b60008060408385031215612a6f57600080fd5b6000612a7d85828601612976565b9250506020612a8e85828601612976565b9150509250929050565b600080600060608486031215612aad57600080fd5b6000612abb86828701612976565b9350506020612acc86828701612976565b9250506040612add86828701612a1e565b9150509250925092565b60008060008060808587031215612afd57600080fd5b6000612b0b87828801612976565b9450506020612b1c87828801612976565b9350506040612b2d87828801612a1e565b925050606085013567ffffffffffffffff811115612b4a57600080fd5b612b56878288016129ca565b91505092959194509250565b60008060408385031215612b7557600080fd5b6000612b8385828601612976565b9250506020612b948582860161298b565b9150509250929050565b60008060408385031215612bb157600080fd5b6000612bbf85828601612976565b9250506020612bd085828601612a1e565b9150509250929050565b600060208284031215612bec57600080fd5b6000612bfa848285016129a0565b91505092915050565b600060208284031215612c1557600080fd5b6000612c23848285016129b5565b91505092915050565b600060208284031215612c3e57600080fd5b600082013567ffffffffffffffff811115612c5857600080fd5b612c64848285016129f4565b91505092915050565b600060208284031215612c7f57600080fd5b6000612c8d84828501612a1e565b91505092915050565b600080600060608486031215612cab57600080fd5b6000612cb986828701612a1e565b935050602084013567ffffffffffffffff811115612cd657600080fd5b612ce2868287016129f4565b9250506040612cf386828701612a1e565b9150509250925092565b6000612d098383613136565b60208301905092915050565b612d1e816136ee565b82525050565b6000612d2f826135c7565b612d3981856135f5565b9350612d44836135b7565b8060005b83811015612d75578151612d5c8882612cfd565b9750612d67836135e8565b925050600181019050612d48565b5085935050505092915050565b612d8b81613700565b82525050565b6000612d9c826135d2565b612da68185613606565b9350612db6818560208601613771565b612dbf8161393d565b840191505092915050565b6000612dd5826135dd565b612ddf8185613617565b9350612def818560208601613771565b612df88161393d565b840191505092915050565b6000612e0e826135dd565b612e188185613628565b9350612e28818560208601613771565b80840191505092915050565b6000612e41602b83613617565b9150612e4c8261394e565b604082019050919050565b6000612e64603283613617565b9150612e6f8261399d565b604082019050919050565b6000612e87602683613617565b9150612e92826139ec565b604082019050919050565b6000612eaa602583613617565b9150612eb582613a3b565b604082019050919050565b6000612ecd601c83613617565b9150612ed882613a8a565b602082019050919050565b6000612ef0601083613617565b9150612efb82613ab3565b602082019050919050565b6000612f13601383613617565b9150612f1e82613adc565b602082019050919050565b6000612f36602483613617565b9150612f4182613b05565b604082019050919050565b6000612f59601983613617565b9150612f6482613b54565b602082019050919050565b6000612f7c602c83613617565b9150612f8782613b7d565b604082019050919050565b6000612f9f603883613617565b9150612faa82613bcc565b604082019050919050565b6000612fc2602a83613617565b9150612fcd82613c1b565b604082019050919050565b6000612fe5602983613617565b9150612ff082613c6a565b604082019050919050565b6000613008602e83613617565b915061301382613cb9565b604082019050919050565b600061302b602083613617565b915061303682613d08565b602082019050919050565b600061304e603183613617565b915061305982613d31565b604082019050919050565b6000613071602c83613617565b915061307c82613d80565b604082019050919050565b6000613094602083613617565b915061309f82613dcf565b602082019050919050565b60006130b7602f83613617565b91506130c282613df8565b604082019050919050565b60006130da602183613617565b91506130e582613e47565b604082019050919050565b60006130fd603183613617565b915061310882613e96565b604082019050919050565b6000613120602c83613617565b915061312b82613ee5565b604082019050919050565b61313f81613758565b82525050565b61314e81613758565b82525050565b60006131608284612e03565b915081905092915050565b60006131778285612e03565b91506131838284612e03565b91508190509392505050565b60006020820190506131a46000830184612d15565b92915050565b60006080820190506131bf6000830187612d15565b6131cc6020830186612d15565b6131d96040830185613145565b81810360608301526131eb8184612d91565b905095945050505050565b600060208201905081810360008301526132108184612d24565b905092915050565b600060208201905061322d6000830184612d82565b92915050565b6000602082019050818103600083015261324d8184612dca565b905092915050565b6000602082019050818103600083015261326e81612e34565b9050919050565b6000602082019050818103600083015261328e81612e57565b9050919050565b600060208201905081810360008301526132ae81612e7a565b9050919050565b600060208201905081810360008301526132ce81612e9d565b9050919050565b600060208201905081810360008301526132ee81612ec0565b9050919050565b6000602082019050818103600083015261330e81612ee3565b9050919050565b6000602082019050818103600083015261332e81612f06565b9050919050565b6000602082019050818103600083015261334e81612f29565b9050919050565b6000602082019050818103600083015261336e81612f4c565b9050919050565b6000602082019050818103600083015261338e81612f6f565b9050919050565b600060208201905081810360008301526133ae81612f92565b9050919050565b600060208201905081810360008301526133ce81612fb5565b9050919050565b600060208201905081810360008301526133ee81612fd8565b9050919050565b6000602082019050818103600083015261340e81612ffb565b9050919050565b6000602082019050818103600083015261342e8161301e565b9050919050565b6000602082019050818103600083015261344e81613041565b9050919050565b6000602082019050818103600083015261346e81613064565b9050919050565b6000602082019050818103600083015261348e81613087565b9050919050565b600060208201905081810360008301526134ae816130aa565b9050919050565b600060208201905081810360008301526134ce816130cd565b9050919050565b600060208201905081810360008301526134ee816130f0565b9050919050565b6000602082019050818103600083015261350e81613113565b9050919050565b600060208201905061352a6000830184613145565b92915050565b600061353a61354b565b905061354682826137d6565b919050565b6000604051905090565b600067ffffffffffffffff8211156135705761356f61390e565b5b6135798261393d565b9050602081019050919050565b600067ffffffffffffffff8211156135a1576135a061390e565b5b6135aa8261393d565b9050602081019050919050565b6000819050602082019050919050565b600081519050919050565b600081519050919050565b600081519050919050565b6000602082019050919050565b600082825260208201905092915050565b600082825260208201905092915050565b600082825260208201905092915050565b600081905092915050565b600061363e82613758565b915061364983613758565b9250827fffffffffffffffffffffffffffffffffffffffffffffffffffffffffffffffff0382111561367e5761367d613881565b5b828201905092915050565b600061369482613758565b915061369f83613758565b9250826136af576136ae6138b0565b5b828204905092915050565b60006136c582613758565b91506136d083613758565b9250828210156136e3576136e2613881565b5b828203905092915050565b60006136f982613738565b9050919050565b60008115159050919050565b60007fffffffff0000000000000000000000000000000000000000000000000000000082169050919050565b600073ffffffffffffffffffffffffffffffffffffffff82169050919050565b6000819050919050565b82818337600083830152505050565b60005b8381101561378f578082015181840152602081019050613774565b8381111561379e576000848401525b50505050565b600060028204905060018216806137bc57607f821691505b602082108114156137d0576137cf6138df565b5b50919050565b6137df8261393d565b810181811067ffffffffffffffff821117156137fe576137fd61390e565b5b80604052505050565b600061381282613758565b91507fffffffffffffffffffffffffffffffffffffffffffffffffffffffffffffffff82141561384557613844613881565b5b600182019050919050565b600061385b82613758565b915061386683613758565b925082613876576138756138b0565b5b828206905092915050565b7f4e487b7100000000000000000000000000000000000000000000000000000000600052601160045260246000fd5b7f4e487b7100000000000000000000000000000000000000000000000000000000600052601260045260246000fd5b7f4e487b7100000000000000000000000000000000000000000000000000000000600052602260045260246000fd5b7f4e487b7100000000000000000000000000000000000000000000000000000000600052604160045260246000fd5b6000601f19601f8301169050919050565b7f455243373231456e756d657261626c653a206f776e657220696e646578206f7560008201527f74206f6620626f756e6473000000000000000000000000000000000000000000602082015250565b7f4552433732313a207472616e7366657220746f206e6f6e20455243373231526560008201527f63656976657220696d706c656d656e7465720000000000000000000000000000602082015250565b7f4f776e61626c653a206e6577206f776e657220697320746865207a65726f206160008201527f6464726573730000000000000000000000000000000000000000000000000000602082015250565b7f4552433732313a207472616e736665722066726f6d20696e636f72726563742060008201527f6f776e6572000000000000000000000000000000000000000000000000000000602082015250565b7f4552433732313a20746f6b656e20616c7265616479206d696e74656400000000600082015250565b7f416c726561647920566f74656421212100000000000000000000000000000000600082015250565b7f596f7520617265206e6f7420616c6c6f77656400000000000000000000000000600082015250565b7f4552433732313a207472616e7366657220746f20746865207a65726f2061646460008201527f7265737300000000000000000000000000000000000000000000000000000000602082015250565b7f4552433732313a20617070726f766520746f2063616c6c657200000000000000600082015250565b7f4552433732313a206f70657261746f7220717565727920666f72206e6f6e657860008201527f697374656e7420746f6b656e0000000000000000000000000000000000000000602082015250565b7f4552433732313a20617070726f76652063616c6c6572206973206e6f74206f7760008201527f6e6572206e6f7220617070726f76656420666f7220616c6c0000000000000000602082015250565b7f4552433732313a2062616c616e636520717565727920666f7220746865207a6560008201527f726f206164647265737300000000000000000000000000000000000000000000602082015250565b7f4552433732313a206f776e657220717565727920666f72206e6f6e657869737460008201527f656e7420746f6b656e0000000000000000000000000000000000000000000000602082015250565b7f45524337323155524953746f726167653a2055524920736574206f66206e6f6e60008201527f6578697374656e7420746f6b656e000000000000000000000000000000000000602082015250565b7f4552433732313a206d696e7420746f20746865207a65726f2061646472657373600082015250565b7f45524337323155524953746f726167653a2055524920717565727920666f722060008201527f6e6f6e6578697374656e7420746f6b656e000000000000000000000000000000602082015250565b7f4552433732313a20617070726f76656420717565727920666f72206e6f6e657860008201527f697374656e7420746f6b656e0000000000000000000000000000000000000000602082015250565b7f4f776e61626c653a2063616c6c6572206973206e6f7420746865206f776e6572600082015250565b7f4552433732314d657461646174613a2055524920717565727920666f72206e6f60008201527f6e6578697374656e7420746f6b656e0000000000000000000000000000000000602082015250565b7f4552433732313a20617070726f76616c20746f2063757272656e74206f776e6560008201527f7200000000000000000000000000000000000000000000000000000000000000602082015250565b7f4552433732313a207472616e736665722063616c6c6572206973206e6f74206f60008201527f776e6572206e6f7220617070726f766564000000000000000000000000000000602082015250565b7f455243373231456e756d657261626c653a20676c6f62616c20696e646578206f60008201527f7574206f6620626f756e64730000000000000000000000000000000000000000602082015250565b613f3d816136ee565b8114613f4857600080fd5b50565b613f5481613700565b8114613f5f57600080fd5b50565b613f6b8161370c565b8114613f7657600080fd5b50565b613f8281613758565b8114613f8d57600080fd5b5056fea26469706673582212201ef61085523b4f048c164674926777d81e59f3ebf9817c7c4bcbede7f27744f464736f6c63430008010033",
  "linkReferences": {},
  "deployedLinkReferences": {}
}