{
  "_format": "hh-sol-artifact-1",
  "contractName": "VoteContract",
  "sourceName": "contracts/VoteContract.sol",
  "abi": [
    {
      "inputs": [],
      "stateMutability": "nonpayable",
      "type": "constructor"
    },
    {
      "anonymous": false,
      "inputs": [
        {
          "indexed": true,
          "internalType": "address",
          "name": "owner",
          "type": "address"
        },
        {
          "indexed": true,
          "internalType": "address",
          "name": "approved",
          "type": "address"
        },
        {
          "indexed": true,
          "internalType": "uint256",
          "name": "tokenId",
          "type": "uint256"
        }
      ],
      "name": "Approval",
      "type": "event"
    },
    {
      "anonymous": false,
      "inputs": [
        {
          "indexed": true,
          "internalType": "address",
          "name": "owner",
          "type": "address"
        },
        {
          "indexed": true,
          "internalType": "address",
          "name": "operator",
          "type": "address"
        },
        {
          "indexed": false,
          "internalType": "bool",
          "name": "approved",
          "type": "bool"
        }
      ],
      "name": "ApprovalForAll",
      "type": "event"
    },
    {
      "anonymous": false,
      "inputs": [
        {
          "indexed": true,
          "internalType": "address",
          "name": "previousOwner",
          "type": "address"
        },
        {
          "indexed": true,
          "internalType": "address",
          "name": "newOwner",
          "type": "address"
        }
      ],
      "name": "OwnershipTransferred",
      "type": "event"
    },
    {
      "anonymous": false,
      "inputs": [
        {
          "indexed": true,
          "internalType": "address",
          "name": "from",
          "type": "address"
        },
        {
          "indexed": true,
          "internalType": "address",
          "name": "to",
          "type": "address"
        },
        {
          "indexed": true,
          "internalType": "uint256",
          "name": "tokenId",
          "type": "uint256"
        }
      ],
      "name": "Transfer",
      "type": "event"
    },
    {
      "inputs": [
        {
          "internalType": "address",
          "name": "to",
          "type": "address"
        },
        {
          "internalType": "uint256",
          "name": "tokenId",
          "type": "uint256"
        }
      ],
      "name": "approve",
      "outputs": [],
      "stateMutability": "nonpayable",
      "type": "function"
    },
    {
      "inputs": [
        {
          "internalType": "address",
          "name": "owner",
          "type": "address"
        }
      ],
      "name": "balanceOf",
      "outputs": [
        {
          "internalType": "uint256",
          "name": "",
          "type": "uint256"
        }
      ],
      "stateMutability": "view",
      "type": "function"
    },
    {
      "inputs": [
        {
          "internalType": "uint256",
          "name": "tokenId",
          "type": "uint256"
        }
      ],
      "name": "getApproved",
      "outputs": [
        {
          "internalType": "address",
          "name": "",
          "type": "address"
        }
      ],
      "stateMutability": "view",
      "type": "function"
    },
    {
      "inputs": [
        {
          "internalType": "uint256",
          "name": "tokenId",
          "type": "uint256"
        }
      ],
      "name": "hashIdOfTokenId",
      "outputs": [
        {
          "internalType": "string",
          "name": "",
          "type": "string"
        }
      ],
      "stateMutability": "view",
      "type": "function"
    },
    {
      "inputs": [
        {
          "internalType": "address",
          "name": "owner",
          "type": "address"
        },
        {
          "internalType": "address",
          "name": "operator",
          "type": "address"
        }
      ],
      "name": "isApprovedForAll",
      "outputs": [
        {
          "internalType": "bool",
          "name": "",
          "type": "bool"
        }
      ],
      "stateMutability": "view",
      "type": "function"
    },
    {
      "inputs": [
        {
          "internalType": "uint256",
          "name": "tokenId",
          "type": "uint256"
        },
        {
          "internalType": "string",
          "name": "_hashId",
          "type": "string"
        },
        {
          "internalType": "uint256",
          "name": "option",
          "type": "uint256"
        }
      ],
      "name": "mint",
      "outputs": [],
      "stateMutability": "nonpayable",
      "type": "function"
    },
    {
      "inputs": [],
      "name": "name",
      "outputs": [
        {
          "internalType": "string",
          "name": "",
          "type": "string"
        }
      ],
      "stateMutability": "view",
      "type": "function"
    },
    {
      "inputs": [
        {
          "internalType": "string",
          "name": "_hashId",
          "type": "string"
        }
      ],
      "name": "optionOfHashId",
      "outputs": [
        {
          "internalType": "uint256",
          "name": "",
          "type": "uint256"
        }
      ],
      "stateMutability": "view",
      "type": "function"
    },
    {
      "inputs": [
        {
          "internalType": "uint256",
          "name": "tokenId",
          "type": "uint256"
        }
      ],
      "name": "optionOfTokenId",
      "outputs": [
        {
          "internalType": "uint256",
          "name": "",
          "type": "uint256"
        }
      ],
      "stateMutability": "view",
      "type": "function"
    },
    {
      "inputs": [],
      "name": "owner",
      "outputs": [
        {
          "internalType": "address",
          "name": "",
          "type": "address"
        }
      ],
      "stateMutability": "view",
      "type": "function"
    },
    {
      "inputs": [
        {
          "internalType": "uint256",
          "name": "tokenId",
          "type": "uint256"
        }
      ],
      "name": "ownerOf",
      "outputs": [
        {
          "internalType": "address",
          "name": "",
          "type": "address"
        }
      ],
      "stateMutability": "view",
      "type": "function"
    },
    {
      "inputs": [],
      "name": "renounceOwnership",
      "outputs": [],
      "stateMutability": "nonpayable",
      "type": "function"
    },
    {
      "inputs": [
        {
          "internalType": "address",
          "name": "from",
          "type": "address"
        },
        {
          "internalType": "address",
          "name": "to",
          "type": "address"
        },
        {
          "internalType": "uint256",
          "name": "tokenId",
          "type": "uint256"
        }
      ],
      "name": "safeTransferFrom",
      "outputs": [],
      "stateMutability": "nonpayable",
      "type": "function"
    },
    {
      "inputs": [
        {
          "internalType": "address",
          "name": "from",
          "type": "address"
        },
        {
          "internalType": "address",
          "name": "to",
          "type": "address"
        },
        {
          "internalType": "uint256",
          "name": "tokenId",
          "type": "uint256"
        },
        {
          "internalType": "bytes",
          "name": "_data",
          "type": "bytes"
        }
      ],
      "name": "safeTransferFrom",
      "outputs": [],
      "stateMutability": "nonpayable",
      "type": "function"
    },
    {
      "inputs": [
        {
          "internalType": "address",
          "name": "operator",
          "type": "address"
        },
        {
          "internalType": "bool",
          "name": "approved",
          "type": "bool"
        }
      ],
      "name": "setApprovalForAll",
      "outputs": [],
      "stateMutability": "nonpayable",
      "type": "function"
    },
    {
      "inputs": [
        {
          "internalType": "bytes4",
          "name": "interfaceId",
          "type": "bytes4"
        }
      ],
      "name": "supportsInterface",
      "outputs": [
        {
          "internalType": "bool",
          "name": "",
          "type": "bool"
        }
      ],
      "stateMutability": "view",
      "type": "function"
    },
    {
      "inputs": [],
      "name": "symbol",
      "outputs": [
        {
          "internalType": "string",
          "name": "",
          "type": "string"
        }
      ],
      "stateMutability": "view",
      "type": "function"
    },
    {
      "inputs": [
        {
          "internalType": "uint256",
          "name": "index",
          "type": "uint256"
        }
      ],
      "name": "tokenByIndex",
      "outputs": [
        {
          "internalType": "uint256",
          "name": "",
          "type": "uint256"
        }
      ],
      "stateMutability": "view",
      "type": "function"
    },
    {
      "inputs": [
        {
          "internalType": "address",
          "name": "owner",
          "type": "address"
        },
        {
          "internalType": "uint256",
          "name": "index",
          "type": "uint256"
        }
      ],
      "name": "tokenOfOwnerByIndex",
      "outputs": [
        {
          "internalType": "uint256",
          "name": "",
          "type": "uint256"
        }
      ],
      "stateMutability": "view",
      "type": "function"
    },
    {
      "inputs": [
        {
          "internalType": "uint256",
          "name": "tokenId",
          "type": "uint256"
        }
      ],
      "name": "tokenURI",
      "outputs": [
        {
          "internalType": "string",
          "name": "",
          "type": "string"
        }
      ],
      "stateMutability": "view",
      "type": "function"
    },
    {
      "inputs": [],
      "name": "totalSupply",
      "outputs": [
        {
          "internalType": "uint256",
          "name": "",
          "type": "uint256"
        }
      ],
      "stateMutability": "view",
      "type": "function"
    },
    {
      "inputs": [
        {
          "internalType": "address",
          "name": "from",
          "type": "address"
        },
        {
          "internalType": "address",
          "name": "to",
          "type": "address"
        },
        {
          "internalType": "uint256",
          "name": "tokenId",
          "type": "uint256"
        }
      ],
      "name": "transferFrom",
      "outputs": [],
      "stateMutability": "nonpayable",
      "type": "function"
    },
    {
      "inputs": [
        {
          "internalType": "address",
          "name": "newOwner",
          "type": "address"
        }
      ],
      "name": "transferOwnership",
      "outputs": [],
      "stateMutability": "nonpayable",
      "type": "function"
    },
    {
      "inputs": [
        {
          "internalType": "uint256",
          "name": "",
          "type": "uint256"
        }
      ],
      "name": "voteIndex",
      "outputs": [
        {
          "internalType": "string",
          "name": "hashId",
          "type": "string"
        },
        {
          "internalType": "uint256",
          "name": "option",
          "type": "uint256"
        }
      ],
      "stateMutability": "view",
      "type": "function"
    }
  ],
  "bytecode": "0x60806040523480156200001157600080fd5b506040518060400160405280601a81526020017f3230323220507265736964656e7469616c20456c656374696f6e0000000000008152506040518060400160405280600381526020017f474f560000000000000000000000000000000000000000000000000000000000815250816000908051906020019062000096929190620001a6565b508060019080519060200190620000af929190620001a6565b505050620000d2620000c6620000d860201b60201c565b620000e060201b60201c565b620002bb565b600033905090565b6000600a60009054906101000a900473ffffffffffffffffffffffffffffffffffffffff16905081600a60006101000a81548173ffffffffffffffffffffffffffffffffffffffff021916908373ffffffffffffffffffffffffffffffffffffffff1602179055508173ffffffffffffffffffffffffffffffffffffffff168173ffffffffffffffffffffffffffffffffffffffff167f8be0079c531659141344cd1fd0a4f28419497f9722a3daafe3b4186f6b6457e060405160405180910390a35050565b828054620001b49062000256565b90600052602060002090601f016020900481019282620001d8576000855562000224565b82601f10620001f357805160ff191683800117855562000224565b8280016001018555821562000224579182015b828111156200022357825182559160200191906001019062000206565b5b50905062000233919062000237565b5090565b5b808211156200025257600081600090555060010162000238565b5090565b600060028204905060018216806200026f57607f821691505b602082108114156200028657620002856200028c565b5b50919050565b7f4e487b7100000000000000000000000000000000000000000000000000000000600052602260045260246000fd5b613a1b80620002cb6000396000f3fe608060405234801561001057600080fd5b50600436106101585760003560e01c80636352211e116100c3578063acca6b311161007c578063acca6b31146103ff578063b435bbf61461041b578063b88d4fde1461044c578063c87b56dd14610468578063e985e9c514610498578063f2fde38b146104c857610158565b80636352211e1461033d57806370a082311461036d578063715018a61461039d5780638da5cb5b146103a757806395d89b41146103c5578063a22cb465146103e357610158565b806323b872dd1161011557806323b872dd146102455780632f745c59146102615780633953141e1461029157806342842e0e146102c15780634f6ccce7146102dd578063586a6ea01461030d57610158565b806301ffc9a71461015d57806306fdde031461018d578063081812fc146101ab57806308c0b30a146101db578063095ea7b31461020b57806318160ddd14610227575b600080fd5b6101776004803603810190610172919061286f565b6104e4565b6040516101849190612d9d565b60405180910390f35b6101956104f6565b6040516101a29190612db8565b60405180910390f35b6101c560048036038101906101c09190612902565b610588565b6040516101d29190612d36565b60405180910390f35b6101f560048036038101906101f09190612902565b61060d565b6040516102029190612db8565b60405180910390f35b61022560048036038101906102209190612833565b6106c1565b005b61022f6107d9565b60405161023c919061306a565b60405180910390f35b61025f600480360381019061025a919061272d565b6107e6565b005b61027b60048036038101906102769190612833565b610846565b604051610288919061306a565b60405180910390f35b6102ab60048036038101906102a691906128c1565b6108eb565b6040516102b8919061306a565b60405180910390f35b6102db60048036038101906102d6919061272d565b610971565b005b6102f760048036038101906102f29190612902565b610991565b604051610304919061306a565b60405180910390f35b61032760048036038101906103229190612902565b610a28565b604051610334919061306a565b60405180910390f35b61035760048036038101906103529190612902565b610a54565b6040516103649190612d36565b60405180910390f35b610387600480360381019061038291906126c8565b610b06565b604051610394919061306a565b60405180910390f35b6103a5610bbe565b005b6103af610c46565b6040516103bc9190612d36565b60405180910390f35b6103cd610c70565b6040516103da9190612db8565b60405180910390f35b6103fd60048036038101906103f891906127f7565b610d02565b005b6104196004803603810190610414919061292b565b610d18565b005b61043560048036038101906104309190612902565b610e51565b604051610443929190612dda565b60405180910390f35b6104666004803603810190610461919061277c565b610efd565b005b610482600480360381019061047d9190612902565b610f5f565b60405161048f9190612db8565b60405180910390f35b6104b260048036038101906104ad91906126f1565b611006565b6040516104bf9190612d9d565b60405180910390f35b6104e260048036038101906104dd91906126c8565b61109a565b005b60006104ef82611192565b9050919050565b606060008054610505906132c0565b80601f0160208091040260200160405190810160405280929190818152602001828054610531906132c0565b801561057e5780601f106105535761010080835404028352916020019161057e565b820191906000526020600020905b81548152906001019060200180831161056157829003601f168201915b5050505050905090565b60006105938261120c565b6105d2576040517f08c379a00000000000000000000000000000000000000000000000000000000081526004016105c990612faa565b60405180910390fd5b6004600083815260200190815260200160002060009054906101000a900473ffffffffffffffffffffffffffffffffffffffff169050919050565b6060600b600060018461062091906131d6565b8152602001908152602001600020600001805461063c906132c0565b80601f0160208091040260200160405190810160405280929190818152602001828054610668906132c0565b80156106b55780601f1061068a576101008083540402835291602001916106b5565b820191906000526020600020905b81548152906001019060200180831161069857829003601f168201915b50505050509050919050565b60006106cc82610a54565b90508073ffffffffffffffffffffffffffffffffffffffff168373ffffffffffffffffffffffffffffffffffffffff16141561073d576040517f08c379a00000000000000000000000000000000000000000000000000000000081526004016107349061300a565b60405180910390fd5b8073ffffffffffffffffffffffffffffffffffffffff1661075c611278565b73ffffffffffffffffffffffffffffffffffffffff16148061078b575061078a81610785611278565b611006565b5b6107ca576040517f08c379a00000000000000000000000000000000000000000000000000000000081526004016107c190612f2a565b60405180910390fd5b6107d48383611280565b505050565b6000600880549050905090565b6107f76107f1611278565b82611339565b610836576040517f08c379a000000000000000000000000000000000000000000000000000000000815260040161082d9061302a565b60405180910390fd5b610841838383611417565b505050565b600061085183610b06565b8210610892576040517f08c379a000000000000000000000000000000000000000000000000000000000815260040161088990612e2a565b60405180910390fd5b600660008473ffffffffffffffffffffffffffffffffffffffff1673ffffffffffffffffffffffffffffffffffffffff168152602001908152602001600020600083815260200190815260200160002054905092915050565b6000806108f78361167e565b90506000600190505b6109086107d9565b8111610965578161092061091b8361060d565b61167e565b141561095257600b600060018361093791906131d6565b8152602001908152602001600020600101549250505061096c565b808061095d90613323565b915050610900565b5060009150505b919050565b61098c83838360405180602001604052806000815250610efd565b505050565b600061099b6107d9565b82106109dc576040517f08c379a00000000000000000000000000000000000000000000000000000000081526004016109d39061304a565b60405180910390fd5b60088281548110610a16577f4e487b7100000000000000000000000000000000000000000000000000000000600052603260045260246000fd5b90600052602060002001549050919050565b6000600b6000600184610a3b91906131d6565b8152602001908152602001600020600101549050919050565b6000806002600084815260200190815260200160002060009054906101000a900473ffffffffffffffffffffffffffffffffffffffff169050600073ffffffffffffffffffffffffffffffffffffffff168173ffffffffffffffffffffffffffffffffffffffff161415610afd576040517f08c379a0000000000000000000000000000000000000000000000000000000008152600401610af490612f6a565b60405180910390fd5b80915050919050565b60008073ffffffffffffffffffffffffffffffffffffffff168273ffffffffffffffffffffffffffffffffffffffff161415610b77576040517f08c379a0000000000000000000000000000000000000000000000000000000008152600401610b6e90612f4a565b60405180910390fd5b600360008373ffffffffffffffffffffffffffffffffffffffff1673ffffffffffffffffffffffffffffffffffffffff168152602001908152602001600020549050919050565b610bc6611278565b73ffffffffffffffffffffffffffffffffffffffff16610be4610c46565b73ffffffffffffffffffffffffffffffffffffffff1614610c3a576040517f08c379a0000000000000000000000000000000000000000000000000000000008152600401610c3190612fca565b60405180910390fd5b610c4460006116ae565b565b6000600a60009054906101000a900473ffffffffffffffffffffffffffffffffffffffff16905090565b606060018054610c7f906132c0565b80601f0160208091040260200160405190810160405280929190818152602001828054610cab906132c0565b8015610cf85780601f10610ccd57610100808354040283529160200191610cf8565b820191906000526020600020905b815481529060010190602001808311610cdb57829003601f168201915b5050505050905090565b610d14610d0d611278565b8383611774565b5050565b610d20611278565b73ffffffffffffffffffffffffffffffffffffffff16610d3e610c46565b73ffffffffffffffffffffffffffffffffffffffff1614610d94576040517f08c379a0000000000000000000000000000000000000000000000000000000008152600401610d8b90612fca565b60405180910390fd5b610d9d826118e1565b15610ddd576040517f08c379a0000000000000000000000000000000000000000000000000000000008152600401610dd490612e0a565b60405180910390fd5b610dee610de8611278565b84611946565b604051806040016040528083815260200182815250600b6000600186610e1491906131d6565b81526020019081526020016000206000820151816000019080519060200190610e3e9291906124ec565b5060208201518160010155905050505050565b600b602052806000526040600020600091509050806000018054610e74906132c0565b80601f0160208091040260200160405190810160405280929190818152602001828054610ea0906132c0565b8015610eed5780601f10610ec257610100808354040283529160200191610eed565b820191906000526020600020905b815481529060010190602001808311610ed057829003601f168201915b5050505050908060010154905082565b610f0e610f08611278565b83611339565b610f4d576040517f08c379a0000000000000000000000000000000000000000000000000000000008152600401610f449061302a565b60405180910390fd5b610f5984848484611b20565b50505050565b6060610f6a8261120c565b610fa9576040517f08c379a0000000000000000000000000000000000000000000000000000000008152600401610fa090612fea565b60405180910390fd5b6000610fb3611b7c565b90506000815111610fd35760405180602001604052806000815250610ffe565b80610fdd84611b93565b604051602001610fee929190612d12565b6040516020818303038152906040525b915050919050565b6000600560008473ffffffffffffffffffffffffffffffffffffffff1673ffffffffffffffffffffffffffffffffffffffff16815260200190815260200160002060008373ffffffffffffffffffffffffffffffffffffffff1673ffffffffffffffffffffffffffffffffffffffff16815260200190815260200160002060009054906101000a900460ff16905092915050565b6110a2611278565b73ffffffffffffffffffffffffffffffffffffffff166110c0610c46565b73ffffffffffffffffffffffffffffffffffffffff1614611116576040517f08c379a000000000000000000000000000000000000000000000000000000000815260040161110d90612fca565b60405180910390fd5b600073ffffffffffffffffffffffffffffffffffffffff168173ffffffffffffffffffffffffffffffffffffffff161415611186576040517f08c379a000000000000000000000000000000000000000000000000000000000815260040161117d90612e6a565b60405180910390fd5b61118f816116ae565b50565b60007f780e9d63000000000000000000000000000000000000000000000000000000007bffffffffffffffffffffffffffffffffffffffffffffffffffffffff1916827bffffffffffffffffffffffffffffffffffffffffffffffffffffffff19161480611205575061120482611d40565b5b9050919050565b60008073ffffffffffffffffffffffffffffffffffffffff166002600084815260200190815260200160002060009054906101000a900473ffffffffffffffffffffffffffffffffffffffff1673ffffffffffffffffffffffffffffffffffffffff1614159050919050565b600033905090565b816004600083815260200190815260200160002060006101000a81548173ffffffffffffffffffffffffffffffffffffffff021916908373ffffffffffffffffffffffffffffffffffffffff160217905550808273ffffffffffffffffffffffffffffffffffffffff166112f383610a54565b73ffffffffffffffffffffffffffffffffffffffff167f8c5be1e5ebec7d5bd14f71427d1e84f3dd0314c0f7b2291e5b200ac8c7c3b92560405160405180910390a45050565b60006113448261120c565b611383576040517f08c379a000000000000000000000000000000000000000000000000000000000815260040161137a90612f0a565b60405180910390fd5b600061138e83610a54565b90508073ffffffffffffffffffffffffffffffffffffffff168473ffffffffffffffffffffffffffffffffffffffff1614806113d057506113cf8185611006565b5b8061140e57508373ffffffffffffffffffffffffffffffffffffffff166113f684610588565b73ffffffffffffffffffffffffffffffffffffffff16145b91505092915050565b8273ffffffffffffffffffffffffffffffffffffffff1661143782610a54565b73ffffffffffffffffffffffffffffffffffffffff161461148d576040517f08c379a000000000000000000000000000000000000000000000000000000000815260040161148490612e8a565b60405180910390fd5b600073ffffffffffffffffffffffffffffffffffffffff168273ffffffffffffffffffffffffffffffffffffffff1614156114fd576040517f08c379a00000000000000000000000000000000000000000000000000000000081526004016114f490612eca565b60405180910390fd5b611508838383611e22565b611513600082611280565b6001600360008573ffffffffffffffffffffffffffffffffffffffff1673ffffffffffffffffffffffffffffffffffffffff168152602001908152602001600020600082825461156391906131d6565b925050819055506001600360008473ffffffffffffffffffffffffffffffffffffffff1673ffffffffffffffffffffffffffffffffffffffff16815260200190815260200160002060008282546115ba919061314f565b92505081905550816002600083815260200190815260200160002060006101000a81548173ffffffffffffffffffffffffffffffffffffffff021916908373ffffffffffffffffffffffffffffffffffffffff160217905550808273ffffffffffffffffffffffffffffffffffffffff168473ffffffffffffffffffffffffffffffffffffffff167fddf252ad1be2c89b69c2b068fc378daa952ba7f163c4a11628f55a4df523b3ef60405160405180910390a4611679838383611e32565b505050565b6000816040516020016116919190612cfb565b604051602081830303815290604052805190602001209050919050565b6000600a60009054906101000a900473ffffffffffffffffffffffffffffffffffffffff16905081600a60006101000a81548173ffffffffffffffffffffffffffffffffffffffff021916908373ffffffffffffffffffffffffffffffffffffffff1602179055508173ffffffffffffffffffffffffffffffffffffffff168173ffffffffffffffffffffffffffffffffffffffff167f8be0079c531659141344cd1fd0a4f28419497f9722a3daafe3b4186f6b6457e060405160405180910390a35050565b8173ffffffffffffffffffffffffffffffffffffffff168373ffffffffffffffffffffffffffffffffffffffff1614156117e3576040517f08c379a00000000000000000000000000000000000000000000000000000000081526004016117da90612eea565b60405180910390fd5b80600560008573ffffffffffffffffffffffffffffffffffffffff1673ffffffffffffffffffffffffffffffffffffffff16815260200190815260200160002060008473ffffffffffffffffffffffffffffffffffffffff1673ffffffffffffffffffffffffffffffffffffffff16815260200190815260200160002060006101000a81548160ff0219169083151502179055508173ffffffffffffffffffffffffffffffffffffffff168373ffffffffffffffffffffffffffffffffffffffff167f17307eab39ab6107e8899845ad3d59bd9653f200f220920489ca2b5937696c31836040516118d49190612d9d565b60405180910390a3505050565b6000806118ed8361167e565b90506000600190505b6118fe6107d9565b811161193a57816119166119118361060d565b61167e565b141561192757600192505050611941565b808061193290613323565b9150506118f6565b5060009150505b919050565b600073ffffffffffffffffffffffffffffffffffffffff168273ffffffffffffffffffffffffffffffffffffffff1614156119b6576040517f08c379a00000000000000000000000000000000000000000000000000000000081526004016119ad90612f8a565b60405180910390fd5b6119bf8161120c565b156119ff576040517f08c379a00000000000000000000000000000000000000000000000000000000081526004016119f690612eaa565b60405180910390fd5b611a0b60008383611e22565b6001600360008473ffffffffffffffffffffffffffffffffffffffff1673ffffffffffffffffffffffffffffffffffffffff1681526020019081526020016000206000828254611a5b919061314f565b92505081905550816002600083815260200190815260200160002060006101000a81548173ffffffffffffffffffffffffffffffffffffffff021916908373ffffffffffffffffffffffffffffffffffffffff160217905550808273ffffffffffffffffffffffffffffffffffffffff16600073ffffffffffffffffffffffffffffffffffffffff167fddf252ad1be2c89b69c2b068fc378daa952ba7f163c4a11628f55a4df523b3ef60405160405180910390a4611b1c60008383611e32565b5050565b611b2b848484611417565b611b3784848484611e37565b611b76576040517f08c379a0000000000000000000000000000000000000000000000000000000008152600401611b6d90612e4a565b60405180910390fd5b50505050565b606060405180602001604052806000815250905090565b60606000821415611bdb576040518060400160405280600181526020017f30000000000000000000000000000000000000000000000000000000000000008152509050611d3b565b600082905060005b60008214611c0d578080611bf690613323565b915050600a82611c0691906131a5565b9150611be3565b60008167ffffffffffffffff811115611c4f577f4e487b7100000000000000000000000000000000000000000000000000000000600052604160045260246000fd5b6040519080825280601f01601f191660200182016040528015611c815781602001600182028036833780820191505090505b5090505b60008514611d3457600182611c9a91906131d6565b9150600a85611ca9919061336c565b6030611cb5919061314f565b60f81b818381518110611cf1577f4e487b7100000000000000000000000000000000000000000000000000000000600052603260045260246000fd5b60200101907effffffffffffffffffffffffffffffffffffffffffffffffffffffffffffff1916908160001a905350600a85611d2d91906131a5565b9450611c85565b8093505050505b919050565b60007f80ac58cd000000000000000000000000000000000000000000000000000000007bffffffffffffffffffffffffffffffffffffffffffffffffffffffff1916827bffffffffffffffffffffffffffffffffffffffffffffffffffffffff19161480611e0b57507f5b5e139f000000000000000000000000000000000000000000000000000000007bffffffffffffffffffffffffffffffffffffffffffffffffffffffff1916827bffffffffffffffffffffffffffffffffffffffffffffffffffffffff1916145b80611e1b5750611e1a82611fce565b5b9050919050565b611e2d838383612038565b505050565b505050565b6000611e588473ffffffffffffffffffffffffffffffffffffffff1661214c565b15611fc1578373ffffffffffffffffffffffffffffffffffffffff1663150b7a02611e81611278565b8786866040518563ffffffff1660e01b8152600401611ea39493929190612d51565b602060405180830381600087803b158015611ebd57600080fd5b505af1925050508015611eee57506040513d601f19601f82011682018060405250810190611eeb9190612898565b60015b611f71573d8060008114611f1e576040519150601f19603f3d011682016040523d82523d6000602084013e611f23565b606091505b50600081511415611f69576040517f08c379a0000000000000000000000000000000000000000000000000000000008152600401611f6090612e4a565b60405180910390fd5b805181602001fd5b63150b7a0260e01b7bffffffffffffffffffffffffffffffffffffffffffffffffffffffff1916817bffffffffffffffffffffffffffffffffffffffffffffffffffffffff191614915050611fc6565b600190505b949350505050565b60007f01ffc9a7000000000000000000000000000000000000000000000000000000007bffffffffffffffffffffffffffffffffffffffffffffffffffffffff1916827bffffffffffffffffffffffffffffffffffffffffffffffffffffffff1916149050919050565b61204383838361216f565b600073ffffffffffffffffffffffffffffffffffffffff168373ffffffffffffffffffffffffffffffffffffffff1614156120865761208181612174565b6120c5565b8173ffffffffffffffffffffffffffffffffffffffff168373ffffffffffffffffffffffffffffffffffffffff16146120c4576120c383826121bd565b5b5b600073ffffffffffffffffffffffffffffffffffffffff168273ffffffffffffffffffffffffffffffffffffffff161415612108576121038161232a565b612147565b8273ffffffffffffffffffffffffffffffffffffffff168273ffffffffffffffffffffffffffffffffffffffff161461214657612145828261246d565b5b5b505050565b6000808273ffffffffffffffffffffffffffffffffffffffff163b119050919050565b505050565b6008805490506009600083815260200190815260200160002081905550600881908060018154018082558091505060019003906000526020600020016000909190919091505550565b600060016121ca84610b06565b6121d491906131d6565b90506000600760008481526020019081526020016000205490508181146122b9576000600660008673ffffffffffffffffffffffffffffffffffffffff1673ffffffffffffffffffffffffffffffffffffffff168152602001908152602001600020600084815260200190815260200160002054905080600660008773ffffffffffffffffffffffffffffffffffffffff1673ffffffffffffffffffffffffffffffffffffffff168152602001908152602001600020600084815260200190815260200160002081905550816007600083815260200190815260200160002081905550505b6007600084815260200190815260200160002060009055600660008573ffffffffffffffffffffffffffffffffffffffff1673ffffffffffffffffffffffffffffffffffffffff16815260200190815260200160002060008381526020019081526020016000206000905550505050565b6000600160088054905061233e91906131d6565b9050600060096000848152602001908152602001600020549050600060088381548110612394577f4e487b7100000000000000000000000000000000000000000000000000000000600052603260045260246000fd5b9060005260206000200154905080600883815481106123dc577f4e487b7100000000000000000000000000000000000000000000000000000000600052603260045260246000fd5b906000526020600020018190555081600960008381526020019081526020016000208190555060096000858152602001908152602001600020600090556008805480612451577f4e487b7100000000000000000000000000000000000000000000000000000000600052603160045260246000fd5b6001900381819060005260206000200160009055905550505050565b600061247883610b06565b905081600660008573ffffffffffffffffffffffffffffffffffffffff1673ffffffffffffffffffffffffffffffffffffffff168152602001908152602001600020600083815260200190815260200160002081905550806007600084815260200190815260200160002081905550505050565b8280546124f8906132c0565b90600052602060002090601f01602090048101928261251a5760008555612561565b82601f1061253357805160ff1916838001178555612561565b82800160010185558215612561579182015b82811115612560578251825591602001919060010190612545565b5b50905061256e9190612572565b5090565b5b8082111561258b576000816000905550600101612573565b5090565b60006125a261259d846130aa565b613085565b9050828152602081018484840111156125ba57600080fd5b6125c584828561327e565b509392505050565b60006125e06125db846130db565b613085565b9050828152602081018484840111156125f857600080fd5b61260384828561327e565b509392505050565b60008135905061261a81613989565b92915050565b60008135905061262f816139a0565b92915050565b600081359050612644816139b7565b92915050565b600081519050612659816139b7565b92915050565b600082601f83011261267057600080fd5b813561268084826020860161258f565b91505092915050565b600082601f83011261269a57600080fd5b81356126aa8482602086016125cd565b91505092915050565b6000813590506126c2816139ce565b92915050565b6000602082840312156126da57600080fd5b60006126e88482850161260b565b91505092915050565b6000806040838503121561270457600080fd5b60006127128582860161260b565b92505060206127238582860161260b565b9150509250929050565b60008060006060848603121561274257600080fd5b60006127508682870161260b565b93505060206127618682870161260b565b9250506040612772868287016126b3565b9150509250925092565b6000806000806080858703121561279257600080fd5b60006127a08782880161260b565b94505060206127b18782880161260b565b93505060406127c2878288016126b3565b925050606085013567ffffffffffffffff8111156127df57600080fd5b6127eb8782880161265f565b91505092959194509250565b6000806040838503121561280a57600080fd5b60006128188582860161260b565b925050602061282985828601612620565b9150509250929050565b6000806040838503121561284657600080fd5b60006128548582860161260b565b9250506020612865858286016126b3565b9150509250929050565b60006020828403121561288157600080fd5b600061288f84828501612635565b91505092915050565b6000602082840312156128aa57600080fd5b60006128b88482850161264a565b91505092915050565b6000602082840312156128d357600080fd5b600082013567ffffffffffffffff8111156128ed57600080fd5b6128f984828501612689565b91505092915050565b60006020828403121561291457600080fd5b6000612922848285016126b3565b91505092915050565b60008060006060848603121561294057600080fd5b600061294e868287016126b3565b935050602084013567ffffffffffffffff81111561296b57600080fd5b61297786828701612689565b9250506040612988868287016126b3565b9150509250925092565b61299b8161320a565b82525050565b6129aa8161321c565b82525050565b60006129bb8261310c565b6129c58185613122565b93506129d581856020860161328d565b6129de81613459565b840191505092915050565b60006129f482613117565b6129fe8185613133565b9350612a0e81856020860161328d565b612a1781613459565b840191505092915050565b6000612a2d82613117565b612a378185613144565b9350612a4781856020860161328d565b80840191505092915050565b6000612a60600d83613133565b9150612a6b8261346a565b602082019050919050565b6000612a83602b83613133565b9150612a8e82613493565b604082019050919050565b6000612aa6603283613133565b9150612ab1826134e2565b604082019050919050565b6000612ac9602683613133565b9150612ad482613531565b604082019050919050565b6000612aec602583613133565b9150612af782613580565b604082019050919050565b6000612b0f601c83613133565b9150612b1a826135cf565b602082019050919050565b6000612b32602483613133565b9150612b3d826135f8565b604082019050919050565b6000612b55601983613133565b9150612b6082613647565b602082019050919050565b6000612b78602c83613133565b9150612b8382613670565b604082019050919050565b6000612b9b603883613133565b9150612ba6826136bf565b604082019050919050565b6000612bbe602a83613133565b9150612bc98261370e565b604082019050919050565b6000612be1602983613133565b9150612bec8261375d565b604082019050919050565b6000612c04602083613133565b9150612c0f826137ac565b602082019050919050565b6000612c27602c83613133565b9150612c32826137d5565b604082019050919050565b6000612c4a602083613133565b9150612c5582613824565b602082019050919050565b6000612c6d602f83613133565b9150612c788261384d565b604082019050919050565b6000612c90602183613133565b9150612c9b8261389c565b604082019050919050565b6000612cb3603183613133565b9150612cbe826138eb565b604082019050919050565b6000612cd6602c83613133565b9150612ce18261393a565b604082019050919050565b612cf581613274565b82525050565b6000612d078284612a22565b915081905092915050565b6000612d1e8285612a22565b9150612d2a8284612a22565b91508190509392505050565b6000602082019050612d4b6000830184612992565b92915050565b6000608082019050612d666000830187612992565b612d736020830186612992565b612d806040830185612cec565b8181036060830152612d9281846129b0565b905095945050505050565b6000602082019050612db260008301846129a1565b92915050565b60006020820190508181036000830152612dd281846129e9565b905092915050565b60006040820190508181036000830152612df481856129e9565b9050612e036020830184612cec565b9392505050565b60006020820190508181036000830152612e2381612a53565b9050919050565b60006020820190508181036000830152612e4381612a76565b9050919050565b60006020820190508181036000830152612e6381612a99565b9050919050565b60006020820190508181036000830152612e8381612abc565b9050919050565b60006020820190508181036000830152612ea381612adf565b9050919050565b60006020820190508181036000830152612ec381612b02565b9050919050565b60006020820190508181036000830152612ee381612b25565b9050919050565b60006020820190508181036000830152612f0381612b48565b9050919050565b60006020820190508181036000830152612f2381612b6b565b9050919050565b60006020820190508181036000830152612f4381612b8e565b9050919050565b60006020820190508181036000830152612f6381612bb1565b9050919050565b60006020820190508181036000830152612f8381612bd4565b9050919050565b60006020820190508181036000830152612fa381612bf7565b9050919050565b60006020820190508181036000830152612fc381612c1a565b9050919050565b60006020820190508181036000830152612fe381612c3d565b9050919050565b6000602082019050818103600083015261300381612c60565b9050919050565b6000602082019050818103600083015261302381612c83565b9050919050565b6000602082019050818103600083015261304381612ca6565b9050919050565b6000602082019050818103600083015261306381612cc9565b9050919050565b600060208201905061307f6000830184612cec565b92915050565b600061308f6130a0565b905061309b82826132f2565b919050565b6000604051905090565b600067ffffffffffffffff8211156130c5576130c461342a565b5b6130ce82613459565b9050602081019050919050565b600067ffffffffffffffff8211156130f6576130f561342a565b5b6130ff82613459565b9050602081019050919050565b600081519050919050565b600081519050919050565b600082825260208201905092915050565b600082825260208201905092915050565b600081905092915050565b600061315a82613274565b915061316583613274565b9250827fffffffffffffffffffffffffffffffffffffffffffffffffffffffffffffffff0382111561319a5761319961339d565b5b828201905092915050565b60006131b082613274565b91506131bb83613274565b9250826131cb576131ca6133cc565b5b828204905092915050565b60006131e182613274565b91506131ec83613274565b9250828210156131ff576131fe61339d565b5b828203905092915050565b600061321582613254565b9050919050565b60008115159050919050565b60007fffffffff0000000000000000000000000000000000000000000000000000000082169050919050565b600073ffffffffffffffffffffffffffffffffffffffff82169050919050565b6000819050919050565b82818337600083830152505050565b60005b838110156132ab578082015181840152602081019050613290565b838111156132ba576000848401525b50505050565b600060028204905060018216806132d857607f821691505b602082108114156132ec576132eb6133fb565b5b50919050565b6132fb82613459565b810181811067ffffffffffffffff8211171561331a5761331961342a565b5b80604052505050565b600061332e82613274565b91507fffffffffffffffffffffffffffffffffffffffffffffffffffffffffffffffff8214156133615761336061339d565b5b600182019050919050565b600061337782613274565b915061338283613274565b925082613392576133916133cc565b5b828206905092915050565b7f4e487b7100000000000000000000000000000000000000000000000000000000600052601160045260246000fd5b7f4e487b7100000000000000000000000000000000000000000000000000000000600052601260045260246000fd5b7f4e487b7100000000000000000000000000000000000000000000000000000000600052602260045260246000fd5b7f4e487b7100000000000000000000000000000000000000000000000000000000600052604160045260246000fd5b6000601f19601f8301169050919050565b7f416c726561647920566f74656400000000000000000000000000000000000000600082015250565b7f455243373231456e756d657261626c653a206f776e657220696e646578206f7560008201527f74206f6620626f756e6473000000000000000000000000000000000000000000602082015250565b7f4552433732313a207472616e7366657220746f206e6f6e20455243373231526560008201527f63656976657220696d706c656d656e7465720000000000000000000000000000602082015250565b7f4f776e61626c653a206e6577206f776e657220697320746865207a65726f206160008201527f6464726573730000000000000000000000000000000000000000000000000000602082015250565b7f4552433732313a207472616e736665722066726f6d20696e636f72726563742060008201527f6f776e6572000000000000000000000000000000000000000000000000000000602082015250565b7f4552433732313a20746f6b656e20616c7265616479206d696e74656400000000600082015250565b7f4552433732313a207472616e7366657220746f20746865207a65726f2061646460008201527f7265737300000000000000000000000000000000000000000000000000000000602082015250565b7f4552433732313a20617070726f766520746f2063616c6c657200000000000000600082015250565b7f4552433732313a206f70657261746f7220717565727920666f72206e6f6e657860008201527f697374656e7420746f6b656e0000000000000000000000000000000000000000602082015250565b7f4552433732313a20617070726f76652063616c6c6572206973206e6f74206f7760008201527f6e6572206e6f7220617070726f76656420666f7220616c6c0000000000000000602082015250565b7f4552433732313a2062616c616e636520717565727920666f7220746865207a6560008201527f726f206164647265737300000000000000000000000000000000000000000000602082015250565b7f4552433732313a206f776e657220717565727920666f72206e6f6e657869737460008201527f656e7420746f6b656e0000000000000000000000000000000000000000000000602082015250565b7f4552433732313a206d696e7420746f20746865207a65726f2061646472657373600082015250565b7f4552433732313a20617070726f76656420717565727920666f72206e6f6e657860008201527f697374656e7420746f6b656e0000000000000000000000000000000000000000602082015250565b7f4f776e61626c653a2063616c6c6572206973206e6f7420746865206f776e6572600082015250565b7f4552433732314d657461646174613a2055524920717565727920666f72206e6f60008201527f6e6578697374656e7420746f6b656e0000000000000000000000000000000000602082015250565b7f4552433732313a20617070726f76616c20746f2063757272656e74206f776e6560008201527f7200000000000000000000000000000000000000000000000000000000000000602082015250565b7f4552433732313a207472616e736665722063616c6c6572206973206e6f74206f60008201527f776e6572206e6f7220617070726f766564000000000000000000000000000000602082015250565b7f455243373231456e756d657261626c653a20676c6f62616c20696e646578206f60008201527f7574206f6620626f756e64730000000000000000000000000000000000000000602082015250565b6139928161320a565b811461399d57600080fd5b50565b6139a98161321c565b81146139b457600080fd5b50565b6139c081613228565b81146139cb57600080fd5b50565b6139d781613274565b81146139e257600080fd5b5056fea26469706673582212204ecdaeb3e272467513236db108d9e969380527dc5a0eaf227f0ca8357feb6c8d64736f6c63430008010033",
  "linkReferences": {},
  "deployedLinkReferences": {}
}