{
  "_format": "hh-sol-artifact-1",
  "contractName": "VoteContract",
  "sourceName": "contracts/VoteContract.sol",
  "abi": [
    {
      "inputs": [],
      "stateMutability": "nonpayable",
      "type": "constructor"
    },
    {
      "anonymous": false,
      "inputs": [
        {
          "indexed": true,
          "internalType": "address",
          "name": "owner",
          "type": "address"
        },
        {
          "indexed": true,
          "internalType": "address",
          "name": "approved",
          "type": "address"
        },
        {
          "indexed": true,
          "internalType": "uint256",
          "name": "tokenId",
          "type": "uint256"
        }
      ],
      "name": "Approval",
      "type": "event"
    },
    {
      "anonymous": false,
      "inputs": [
        {
          "indexed": true,
          "internalType": "address",
          "name": "owner",
          "type": "address"
        },
        {
          "indexed": true,
          "internalType": "address",
          "name": "operator",
          "type": "address"
        },
        {
          "indexed": false,
          "internalType": "bool",
          "name": "approved",
          "type": "bool"
        }
      ],
      "name": "ApprovalForAll",
      "type": "event"
    },
    {
      "anonymous": false,
      "inputs": [
        {
          "indexed": true,
          "internalType": "address",
          "name": "from",
          "type": "address"
        },
        {
          "indexed": true,
          "internalType": "address",
          "name": "to",
          "type": "address"
        },
        {
          "indexed": true,
          "internalType": "uint256",
          "name": "tokenId",
          "type": "uint256"
        }
      ],
      "name": "Transfer",
      "type": "event"
    },
    {
      "inputs": [
        {
          "internalType": "address",
          "name": "to",
          "type": "address"
        },
        {
          "internalType": "uint256",
          "name": "tokenId",
          "type": "uint256"
        }
      ],
      "name": "approve",
      "outputs": [],
      "stateMutability": "nonpayable",
      "type": "function"
    },
    {
      "inputs": [
        {
          "internalType": "address",
          "name": "owner",
          "type": "address"
        }
      ],
      "name": "balanceOf",
      "outputs": [
        {
          "internalType": "uint256",
          "name": "",
          "type": "uint256"
        }
      ],
      "stateMutability": "view",
      "type": "function"
    },
    {
      "inputs": [
        {
          "internalType": "uint256",
          "name": "tokenId",
          "type": "uint256"
        }
      ],
      "name": "getApproved",
      "outputs": [
        {
          "internalType": "address",
          "name": "",
          "type": "address"
        }
      ],
      "stateMutability": "view",
      "type": "function"
    },
    {
      "inputs": [
        {
          "internalType": "uint256",
          "name": "tokenId",
          "type": "uint256"
        }
      ],
      "name": "hashIdOfTokenId",
      "outputs": [
        {
          "internalType": "string",
          "name": "",
          "type": "string"
        }
      ],
      "stateMutability": "view",
      "type": "function"
    },
    {
      "inputs": [
        {
          "internalType": "address",
          "name": "owner",
          "type": "address"
        },
        {
          "internalType": "address",
          "name": "operator",
          "type": "address"
        }
      ],
      "name": "isApprovedForAll",
      "outputs": [
        {
          "internalType": "bool",
          "name": "",
          "type": "bool"
        }
      ],
      "stateMutability": "view",
      "type": "function"
    },
    {
      "inputs": [
        {
          "internalType": "uint256",
          "name": "tokenId",
          "type": "uint256"
        },
        {
          "internalType": "string",
          "name": "_hashId",
          "type": "string"
        },
        {
          "internalType": "uint256",
          "name": "option",
          "type": "uint256"
        }
      ],
      "name": "mint",
      "outputs": [],
      "stateMutability": "nonpayable",
      "type": "function"
    },
    {
      "inputs": [],
      "name": "name",
      "outputs": [
        {
          "internalType": "string",
          "name": "",
          "type": "string"
        }
      ],
      "stateMutability": "view",
      "type": "function"
    },
    {
      "inputs": [
        {
          "internalType": "string",
          "name": "_hashId",
          "type": "string"
        }
      ],
      "name": "optionOfHashId",
      "outputs": [
        {
          "internalType": "uint256",
          "name": "",
          "type": "uint256"
        }
      ],
      "stateMutability": "view",
      "type": "function"
    },
    {
      "inputs": [
        {
          "internalType": "uint256",
          "name": "tokenId",
          "type": "uint256"
        }
      ],
      "name": "optionOfTokenId",
      "outputs": [
        {
          "internalType": "uint256",
          "name": "",
          "type": "uint256"
        }
      ],
      "stateMutability": "view",
      "type": "function"
    },
    {
      "inputs": [
        {
          "internalType": "uint256",
          "name": "tokenId",
          "type": "uint256"
        }
      ],
      "name": "ownerOf",
      "outputs": [
        {
          "internalType": "address",
          "name": "",
          "type": "address"
        }
      ],
      "stateMutability": "view",
      "type": "function"
    },
    {
      "inputs": [
        {
          "internalType": "address",
          "name": "from",
          "type": "address"
        },
        {
          "internalType": "address",
          "name": "to",
          "type": "address"
        },
        {
          "internalType": "uint256",
          "name": "tokenId",
          "type": "uint256"
        }
      ],
      "name": "safeTransferFrom",
      "outputs": [],
      "stateMutability": "nonpayable",
      "type": "function"
    },
    {
      "inputs": [
        {
          "internalType": "address",
          "name": "from",
          "type": "address"
        },
        {
          "internalType": "address",
          "name": "to",
          "type": "address"
        },
        {
          "internalType": "uint256",
          "name": "tokenId",
          "type": "uint256"
        },
        {
          "internalType": "bytes",
          "name": "_data",
          "type": "bytes"
        }
      ],
      "name": "safeTransferFrom",
      "outputs": [],
      "stateMutability": "nonpayable",
      "type": "function"
    },
    {
      "inputs": [
        {
          "internalType": "address",
          "name": "operator",
          "type": "address"
        },
        {
          "internalType": "bool",
          "name": "approved",
          "type": "bool"
        }
      ],
      "name": "setApprovalForAll",
      "outputs": [],
      "stateMutability": "nonpayable",
      "type": "function"
    },
    {
      "inputs": [
        {
          "internalType": "bytes4",
          "name": "interfaceId",
          "type": "bytes4"
        }
      ],
      "name": "supportsInterface",
      "outputs": [
        {
          "internalType": "bool",
          "name": "",
          "type": "bool"
        }
      ],
      "stateMutability": "view",
      "type": "function"
    },
    {
      "inputs": [],
      "name": "symbol",
      "outputs": [
        {
          "internalType": "string",
          "name": "",
          "type": "string"
        }
      ],
      "stateMutability": "view",
      "type": "function"
    },
    {
      "inputs": [
        {
          "internalType": "uint256",
          "name": "index",
          "type": "uint256"
        }
      ],
      "name": "tokenByIndex",
      "outputs": [
        {
          "internalType": "uint256",
          "name": "",
          "type": "uint256"
        }
      ],
      "stateMutability": "view",
      "type": "function"
    },
    {
      "inputs": [
        {
          "internalType": "address",
          "name": "owner",
          "type": "address"
        },
        {
          "internalType": "uint256",
          "name": "index",
          "type": "uint256"
        }
      ],
      "name": "tokenOfOwnerByIndex",
      "outputs": [
        {
          "internalType": "uint256",
          "name": "",
          "type": "uint256"
        }
      ],
      "stateMutability": "view",
      "type": "function"
    },
    {
      "inputs": [
        {
          "internalType": "uint256",
          "name": "tokenId",
          "type": "uint256"
        }
      ],
      "name": "tokenURI",
      "outputs": [
        {
          "internalType": "string",
          "name": "",
          "type": "string"
        }
      ],
      "stateMutability": "view",
      "type": "function"
    },
    {
      "inputs": [],
      "name": "totalSupply",
      "outputs": [
        {
          "internalType": "uint256",
          "name": "",
          "type": "uint256"
        }
      ],
      "stateMutability": "view",
      "type": "function"
    },
    {
      "inputs": [
        {
          "internalType": "address",
          "name": "from",
          "type": "address"
        },
        {
          "internalType": "address",
          "name": "to",
          "type": "address"
        },
        {
          "internalType": "uint256",
          "name": "tokenId",
          "type": "uint256"
        }
      ],
      "name": "transferFrom",
      "outputs": [],
      "stateMutability": "nonpayable",
      "type": "function"
    },
    {
      "inputs": [
        {
          "internalType": "uint256",
          "name": "",
          "type": "uint256"
        }
      ],
      "name": "voteIndex",
      "outputs": [
        {
          "internalType": "string",
          "name": "hashId",
          "type": "string"
        },
        {
          "internalType": "uint256",
          "name": "option",
          "type": "uint256"
        }
      ],
      "stateMutability": "view",
      "type": "function"
    }
  ],
  "bytecode": "0x60806040523480156200001157600080fd5b506040518060400160405280601a81526020017f3230323220507265736964656e7469616c20456c656374696f6e0000000000008152506040518060400160405280600381526020017f474f560000000000000000000000000000000000000000000000000000000000815250816000908051906020019062000096929190620000b8565b508060019080519060200190620000af929190620000b8565b505050620001cd565b828054620000c69062000168565b90600052602060002090601f016020900481019282620000ea576000855562000136565b82601f106200010557805160ff191683800117855562000136565b8280016001018555821562000136579182015b828111156200013557825182559160200191906001019062000118565b5b50905062000145919062000149565b5090565b5b80821115620001645760008160009055506001016200014a565b5090565b600060028204905060018216806200018157607f821691505b602082108114156200019857620001976200019e565b5b50919050565b7f4e487b7100000000000000000000000000000000000000000000000000000000600052602260045260246000fd5b61369180620001dd6000396000f3fe608060405234801561001057600080fd5b50600436106101375760003560e01c80634f6ccce7116100b8578063a22cb4651161007c578063a22cb4651461039a578063acca6b31146103b6578063b435bbf6146103d2578063b88d4fde14610403578063c87b56dd1461041f578063e985e9c51461044f57610137565b80634f6ccce7146102bc578063586a6ea0146102ec5780636352211e1461031c57806370a082311461034c57806395d89b411461037c57610137565b806318160ddd116100ff57806318160ddd1461020657806323b872dd146102245780632f745c59146102405780633953141e1461027057806342842e0e146102a057610137565b806301ffc9a71461013c57806306fdde031461016c578063081812fc1461018a57806308c0b30a146101ba578063095ea7b3146101ea575b600080fd5b61015660048036038101906101519190612577565b61047f565b6040516101639190612a82565b60405180910390f35b610174610491565b6040516101819190612a9d565b60405180910390f35b6101a4600480360381019061019f919061260a565b610523565b6040516101b19190612a1b565b60405180910390f35b6101d460048036038101906101cf919061260a565b6105a8565b6040516101e19190612a9d565b60405180910390f35b61020460048036038101906101ff919061253b565b610650565b005b61020e610768565b60405161021b9190612d2f565b60405180910390f35b61023e60048036038101906102399190612435565b610775565b005b61025a6004803603810190610255919061253b565b6107d5565b6040516102679190612d2f565b60405180910390f35b61028a600480360381019061028591906125c9565b61087a565b6040516102979190612d2f565b60405180910390f35b6102ba60048036038101906102b59190612435565b6108f4565b005b6102d660048036038101906102d1919061260a565b610914565b6040516102e39190612d2f565b60405180910390f35b6103066004803603810190610301919061260a565b6109ab565b6040516103139190612d2f565b60405180910390f35b6103366004803603810190610331919061260a565b6109cb565b6040516103439190612a1b565b60405180910390f35b610366600480360381019061036191906123d0565b610a7d565b6040516103739190612d2f565b60405180910390f35b610384610b35565b6040516103919190612a9d565b60405180910390f35b6103b460048036038101906103af91906124ff565b610bc7565b005b6103d060048036038101906103cb9190612633565b610bdd565b005b6103ec60048036038101906103e7919061260a565b610d17565b6040516103fa929190612abf565b60405180910390f35b61041d60048036038101906104189190612484565b610dc3565b005b6104396004803603810190610434919061260a565b610e25565b6040516104469190612a9d565b60405180910390f35b610469600480360381019061046491906123f9565b610ecc565b6040516104769190612a82565b60405180910390f35b600061048a82610f60565b9050919050565b6060600080546104a090612f85565b80601f01602080910402602001604051908101604052809291908181526020018280546104cc90612f85565b80156105195780601f106104ee57610100808354040283529160200191610519565b820191906000526020600020905b8154815290600101906020018083116104fc57829003601f168201915b5050505050905090565b600061052e82610fda565b61056d576040517f08c379a000000000000000000000000000000000000000000000000000000000815260040161056490612c8f565b60405180910390fd5b6004600083815260200190815260200160002060009054906101000a900473ffffffffffffffffffffffffffffffffffffffff169050919050565b6060600a600083815260200190815260200160002060000180546105cb90612f85565b80601f01602080910402602001604051908101604052809291908181526020018280546105f790612f85565b80156106445780601f1061061957610100808354040283529160200191610644565b820191906000526020600020905b81548152906001019060200180831161062757829003601f168201915b50505050509050919050565b600061065b826109cb565b90508073ffffffffffffffffffffffffffffffffffffffff168373ffffffffffffffffffffffffffffffffffffffff1614156106cc576040517f08c379a00000000000000000000000000000000000000000000000000000000081526004016106c390612ccf565b60405180910390fd5b8073ffffffffffffffffffffffffffffffffffffffff166106eb611046565b73ffffffffffffffffffffffffffffffffffffffff16148061071a575061071981610714611046565b610ecc565b5b610759576040517f08c379a000000000000000000000000000000000000000000000000000000000815260040161075090612c0f565b60405180910390fd5b610763838361104e565b505050565b6000600880549050905090565b610786610780611046565b82611107565b6107c5576040517f08c379a00000000000000000000000000000000000000000000000000000000081526004016107bc90612cef565b60405180910390fd5b6107d08383836111e5565b505050565b60006107e083610a7d565b8210610821576040517f08c379a000000000000000000000000000000000000000000000000000000000815260040161081890612b0f565b60405180910390fd5b600660008473ffffffffffffffffffffffffffffffffffffffff1673ffffffffffffffffffffffffffffffffffffffff168152602001908152602001600020600083815260200190815260200160002054905092915050565b6000806108868361144c565b90506000600190505b610897610768565b81116108e857816108af6108aa836105a8565b61144c565b14156108d557600a600082815260200190815260200160002060010154925050506108ef565b80806108e090612fe8565b91505061088f565b5060009150505b919050565b61090f83838360405180602001604052806000815250610dc3565b505050565b600061091e610768565b821061095f576040517f08c379a000000000000000000000000000000000000000000000000000000000815260040161095690612d0f565b60405180910390fd5b60088281548110610999577f4e487b7100000000000000000000000000000000000000000000000000000000600052603260045260246000fd5b90600052602060002001549050919050565b6000600a6000838152602001908152602001600020600101549050919050565b6000806002600084815260200190815260200160002060009054906101000a900473ffffffffffffffffffffffffffffffffffffffff169050600073ffffffffffffffffffffffffffffffffffffffff168173ffffffffffffffffffffffffffffffffffffffff161415610a74576040517f08c379a0000000000000000000000000000000000000000000000000000000008152600401610a6b90612c4f565b60405180910390fd5b80915050919050565b60008073ffffffffffffffffffffffffffffffffffffffff168273ffffffffffffffffffffffffffffffffffffffff161415610aee576040517f08c379a0000000000000000000000000000000000000000000000000000000008152600401610ae590612c2f565b60405180910390fd5b600360008373ffffffffffffffffffffffffffffffffffffffff1673ffffffffffffffffffffffffffffffffffffffff168152602001908152602001600020549050919050565b606060018054610b4490612f85565b80601f0160208091040260200160405190810160405280929190818152602001828054610b7090612f85565b8015610bbd5780601f10610b9257610100808354040283529160200191610bbd565b820191906000526020600020905b815481529060010190602001808311610ba057829003601f168201915b5050505050905090565b610bd9610bd2611046565b838361147c565b5050565b7306309b3b3cf2d6fb5cd0bc0e47f8852f2a2b44e673ffffffffffffffffffffffffffffffffffffffff16610c10611046565b73ffffffffffffffffffffffffffffffffffffffff1614610c66576040517f08c379a0000000000000000000000000000000000000000000000000000000008152600401610c5d90612b8f565b60405180910390fd5b610c6f826115e9565b15610caf576040517f08c379a0000000000000000000000000000000000000000000000000000000008152600401610ca690612aef565b60405180910390fd5b610cc0610cba611046565b8461164e565b604051806040016040528083815260200182815250600a60008581526020019081526020016000206000820151816000019080519060200190610d049291906121f4565b5060208201518160010155905050505050565b600a602052806000526040600020600091509050806000018054610d3a90612f85565b80601f0160208091040260200160405190810160405280929190818152602001828054610d6690612f85565b8015610db35780601f10610d8857610100808354040283529160200191610db3565b820191906000526020600020905b815481529060010190602001808311610d9657829003601f168201915b5050505050908060010154905082565b610dd4610dce611046565b83611107565b610e13576040517f08c379a0000000000000000000000000000000000000000000000000000000008152600401610e0a90612cef565b60405180910390fd5b610e1f84848484611828565b50505050565b6060610e3082610fda565b610e6f576040517f08c379a0000000000000000000000000000000000000000000000000000000008152600401610e6690612caf565b60405180910390fd5b6000610e79611884565b90506000815111610e995760405180602001604052806000815250610ec4565b80610ea38461189b565b604051602001610eb49291906129f7565b6040516020818303038152906040525b915050919050565b6000600560008473ffffffffffffffffffffffffffffffffffffffff1673ffffffffffffffffffffffffffffffffffffffff16815260200190815260200160002060008373ffffffffffffffffffffffffffffffffffffffff1673ffffffffffffffffffffffffffffffffffffffff16815260200190815260200160002060009054906101000a900460ff16905092915050565b60007f780e9d63000000000000000000000000000000000000000000000000000000007bffffffffffffffffffffffffffffffffffffffffffffffffffffffff1916827bffffffffffffffffffffffffffffffffffffffffffffffffffffffff19161480610fd35750610fd282611a48565b5b9050919050565b60008073ffffffffffffffffffffffffffffffffffffffff166002600084815260200190815260200160002060009054906101000a900473ffffffffffffffffffffffffffffffffffffffff1673ffffffffffffffffffffffffffffffffffffffff1614159050919050565b600033905090565b816004600083815260200190815260200160002060006101000a81548173ffffffffffffffffffffffffffffffffffffffff021916908373ffffffffffffffffffffffffffffffffffffffff160217905550808273ffffffffffffffffffffffffffffffffffffffff166110c1836109cb565b73ffffffffffffffffffffffffffffffffffffffff167f8c5be1e5ebec7d5bd14f71427d1e84f3dd0314c0f7b2291e5b200ac8c7c3b92560405160405180910390a45050565b600061111282610fda565b611151576040517f08c379a000000000000000000000000000000000000000000000000000000000815260040161114890612bef565b60405180910390fd5b600061115c836109cb565b90508073ffffffffffffffffffffffffffffffffffffffff168473ffffffffffffffffffffffffffffffffffffffff16148061119e575061119d8185610ecc565b5b806111dc57508373ffffffffffffffffffffffffffffffffffffffff166111c484610523565b73ffffffffffffffffffffffffffffffffffffffff16145b91505092915050565b8273ffffffffffffffffffffffffffffffffffffffff16611205826109cb565b73ffffffffffffffffffffffffffffffffffffffff161461125b576040517f08c379a000000000000000000000000000000000000000000000000000000000815260040161125290612b4f565b60405180910390fd5b600073ffffffffffffffffffffffffffffffffffffffff168273ffffffffffffffffffffffffffffffffffffffff1614156112cb576040517f08c379a00000000000000000000000000000000000000000000000000000000081526004016112c290612baf565b60405180910390fd5b6112d6838383611b2a565b6112e160008261104e565b6001600360008573ffffffffffffffffffffffffffffffffffffffff1673ffffffffffffffffffffffffffffffffffffffff16815260200190815260200160002060008282546113319190612e9b565b925050819055506001600360008473ffffffffffffffffffffffffffffffffffffffff1673ffffffffffffffffffffffffffffffffffffffff16815260200190815260200160002060008282546113889190612e14565b92505081905550816002600083815260200190815260200160002060006101000a81548173ffffffffffffffffffffffffffffffffffffffff021916908373ffffffffffffffffffffffffffffffffffffffff160217905550808273ffffffffffffffffffffffffffffffffffffffff168473ffffffffffffffffffffffffffffffffffffffff167fddf252ad1be2c89b69c2b068fc378daa952ba7f163c4a11628f55a4df523b3ef60405160405180910390a4611447838383611b3a565b505050565b60008160405160200161145f91906129e0565b604051602081830303815290604052805190602001209050919050565b8173ffffffffffffffffffffffffffffffffffffffff168373ffffffffffffffffffffffffffffffffffffffff1614156114eb576040517f08c379a00000000000000000000000000000000000000000000000000000000081526004016114e290612bcf565b60405180910390fd5b80600560008573ffffffffffffffffffffffffffffffffffffffff1673ffffffffffffffffffffffffffffffffffffffff16815260200190815260200160002060008473ffffffffffffffffffffffffffffffffffffffff1673ffffffffffffffffffffffffffffffffffffffff16815260200190815260200160002060006101000a81548160ff0219169083151502179055508173ffffffffffffffffffffffffffffffffffffffff168373ffffffffffffffffffffffffffffffffffffffff167f17307eab39ab6107e8899845ad3d59bd9653f200f220920489ca2b5937696c31836040516115dc9190612a82565b60405180910390a3505050565b6000806115f58361144c565b90506000600190505b611606610768565b8111611642578161161e611619836105a8565b61144c565b141561162f57600192505050611649565b808061163a90612fe8565b9150506115fe565b5060009150505b919050565b600073ffffffffffffffffffffffffffffffffffffffff168273ffffffffffffffffffffffffffffffffffffffff1614156116be576040517f08c379a00000000000000000000000000000000000000000000000000000000081526004016116b590612c6f565b60405180910390fd5b6116c781610fda565b15611707576040517f08c379a00000000000000000000000000000000000000000000000000000000081526004016116fe90612b6f565b60405180910390fd5b61171360008383611b2a565b6001600360008473ffffffffffffffffffffffffffffffffffffffff1673ffffffffffffffffffffffffffffffffffffffff16815260200190815260200160002060008282546117639190612e14565b92505081905550816002600083815260200190815260200160002060006101000a81548173ffffffffffffffffffffffffffffffffffffffff021916908373ffffffffffffffffffffffffffffffffffffffff160217905550808273ffffffffffffffffffffffffffffffffffffffff16600073ffffffffffffffffffffffffffffffffffffffff167fddf252ad1be2c89b69c2b068fc378daa952ba7f163c4a11628f55a4df523b3ef60405160405180910390a461182460008383611b3a565b5050565b6118338484846111e5565b61183f84848484611b3f565b61187e576040517f08c379a000000000000000000000000000000000000000000000000000000000815260040161187590612b2f565b60405180910390fd5b50505050565b606060405180602001604052806000815250905090565b606060008214156118e3576040518060400160405280600181526020017f30000000000000000000000000000000000000000000000000000000000000008152509050611a43565b600082905060005b600082146119155780806118fe90612fe8565b915050600a8261190e9190612e6a565b91506118eb565b60008167ffffffffffffffff811115611957577f4e487b7100000000000000000000000000000000000000000000000000000000600052604160045260246000fd5b6040519080825280601f01601f1916602001820160405280156119895781602001600182028036833780820191505090505b5090505b60008514611a3c576001826119a29190612e9b565b9150600a856119b19190613031565b60306119bd9190612e14565b60f81b8183815181106119f9577f4e487b7100000000000000000000000000000000000000000000000000000000600052603260045260246000fd5b60200101907effffffffffffffffffffffffffffffffffffffffffffffffffffffffffffff1916908160001a905350600a85611a359190612e6a565b945061198d565b8093505050505b919050565b60007f80ac58cd000000000000000000000000000000000000000000000000000000007bffffffffffffffffffffffffffffffffffffffffffffffffffffffff1916827bffffffffffffffffffffffffffffffffffffffffffffffffffffffff19161480611b1357507f5b5e139f000000000000000000000000000000000000000000000000000000007bffffffffffffffffffffffffffffffffffffffffffffffffffffffff1916827bffffffffffffffffffffffffffffffffffffffffffffffffffffffff1916145b80611b235750611b2282611cd6565b5b9050919050565b611b35838383611d40565b505050565b505050565b6000611b608473ffffffffffffffffffffffffffffffffffffffff16611e54565b15611cc9578373ffffffffffffffffffffffffffffffffffffffff1663150b7a02611b89611046565b8786866040518563ffffffff1660e01b8152600401611bab9493929190612a36565b602060405180830381600087803b158015611bc557600080fd5b505af1925050508015611bf657506040513d601f19601f82011682018060405250810190611bf391906125a0565b60015b611c79573d8060008114611c26576040519150601f19603f3d011682016040523d82523d6000602084013e611c2b565b606091505b50600081511415611c71576040517f08c379a0000000000000000000000000000000000000000000000000000000008152600401611c6890612b2f565b60405180910390fd5b805181602001fd5b63150b7a0260e01b7bffffffffffffffffffffffffffffffffffffffffffffffffffffffff1916817bffffffffffffffffffffffffffffffffffffffffffffffffffffffff191614915050611cce565b600190505b949350505050565b60007f01ffc9a7000000000000000000000000000000000000000000000000000000007bffffffffffffffffffffffffffffffffffffffffffffffffffffffff1916827bffffffffffffffffffffffffffffffffffffffffffffffffffffffff1916149050919050565b611d4b838383611e77565b600073ffffffffffffffffffffffffffffffffffffffff168373ffffffffffffffffffffffffffffffffffffffff161415611d8e57611d8981611e7c565b611dcd565b8173ffffffffffffffffffffffffffffffffffffffff168373ffffffffffffffffffffffffffffffffffffffff1614611dcc57611dcb8382611ec5565b5b5b600073ffffffffffffffffffffffffffffffffffffffff168273ffffffffffffffffffffffffffffffffffffffff161415611e1057611e0b81612032565b611e4f565b8273ffffffffffffffffffffffffffffffffffffffff168273ffffffffffffffffffffffffffffffffffffffff1614611e4e57611e4d8282612175565b5b5b505050565b6000808273ffffffffffffffffffffffffffffffffffffffff163b119050919050565b505050565b6008805490506009600083815260200190815260200160002081905550600881908060018154018082558091505060019003906000526020600020016000909190919091505550565b60006001611ed284610a7d565b611edc9190612e9b565b9050600060076000848152602001908152602001600020549050818114611fc1576000600660008673ffffffffffffffffffffffffffffffffffffffff1673ffffffffffffffffffffffffffffffffffffffff168152602001908152602001600020600084815260200190815260200160002054905080600660008773ffffffffffffffffffffffffffffffffffffffff1673ffffffffffffffffffffffffffffffffffffffff168152602001908152602001600020600084815260200190815260200160002081905550816007600083815260200190815260200160002081905550505b6007600084815260200190815260200160002060009055600660008573ffffffffffffffffffffffffffffffffffffffff1673ffffffffffffffffffffffffffffffffffffffff16815260200190815260200160002060008381526020019081526020016000206000905550505050565b600060016008805490506120469190612e9b565b905060006009600084815260200190815260200160002054905060006008838154811061209c577f4e487b7100000000000000000000000000000000000000000000000000000000600052603260045260246000fd5b9060005260206000200154905080600883815481106120e4577f4e487b7100000000000000000000000000000000000000000000000000000000600052603260045260246000fd5b906000526020600020018190555081600960008381526020019081526020016000208190555060096000858152602001908152602001600020600090556008805480612159577f4e487b7100000000000000000000000000000000000000000000000000000000600052603160045260246000fd5b6001900381819060005260206000200160009055905550505050565b600061218083610a7d565b905081600660008573ffffffffffffffffffffffffffffffffffffffff1673ffffffffffffffffffffffffffffffffffffffff168152602001908152602001600020600083815260200190815260200160002081905550806007600084815260200190815260200160002081905550505050565b82805461220090612f85565b90600052602060002090601f0160209004810192826122225760008555612269565b82601f1061223b57805160ff1916838001178555612269565b82800160010185558215612269579182015b8281111561226857825182559160200191906001019061224d565b5b509050612276919061227a565b5090565b5b8082111561229357600081600090555060010161227b565b5090565b60006122aa6122a584612d6f565b612d4a565b9050828152602081018484840111156122c257600080fd5b6122cd848285612f43565b509392505050565b60006122e86122e384612da0565b612d4a565b90508281526020810184848401111561230057600080fd5b61230b848285612f43565b509392505050565b600081359050612322816135ff565b92915050565b60008135905061233781613616565b92915050565b60008135905061234c8161362d565b92915050565b6000815190506123618161362d565b92915050565b600082601f83011261237857600080fd5b8135612388848260208601612297565b91505092915050565b600082601f8301126123a257600080fd5b81356123b28482602086016122d5565b91505092915050565b6000813590506123ca81613644565b92915050565b6000602082840312156123e257600080fd5b60006123f084828501612313565b91505092915050565b6000806040838503121561240c57600080fd5b600061241a85828601612313565b925050602061242b85828601612313565b9150509250929050565b60008060006060848603121561244a57600080fd5b600061245886828701612313565b935050602061246986828701612313565b925050604061247a868287016123bb565b9150509250925092565b6000806000806080858703121561249a57600080fd5b60006124a887828801612313565b94505060206124b987828801612313565b93505060406124ca878288016123bb565b925050606085013567ffffffffffffffff8111156124e757600080fd5b6124f387828801612367565b91505092959194509250565b6000806040838503121561251257600080fd5b600061252085828601612313565b925050602061253185828601612328565b9150509250929050565b6000806040838503121561254e57600080fd5b600061255c85828601612313565b925050602061256d858286016123bb565b9150509250929050565b60006020828403121561258957600080fd5b60006125978482850161233d565b91505092915050565b6000602082840312156125b257600080fd5b60006125c084828501612352565b91505092915050565b6000602082840312156125db57600080fd5b600082013567ffffffffffffffff8111156125f557600080fd5b61260184828501612391565b91505092915050565b60006020828403121561261c57600080fd5b600061262a848285016123bb565b91505092915050565b60008060006060848603121561264857600080fd5b6000612656868287016123bb565b935050602084013567ffffffffffffffff81111561267357600080fd5b61267f86828701612391565b9250506040612690868287016123bb565b9150509250925092565b6126a381612ecf565b82525050565b6126b281612ee1565b82525050565b60006126c382612dd1565b6126cd8185612de7565b93506126dd818560208601612f52565b6126e68161311e565b840191505092915050565b60006126fc82612ddc565b6127068185612df8565b9350612716818560208601612f52565b61271f8161311e565b840191505092915050565b600061273582612ddc565b61273f8185612e09565b935061274f818560208601612f52565b80840191505092915050565b6000612768600d83612df8565b91506127738261312f565b602082019050919050565b600061278b602b83612df8565b915061279682613158565b604082019050919050565b60006127ae603283612df8565b91506127b9826131a7565b604082019050919050565b60006127d1602583612df8565b91506127dc826131f6565b604082019050919050565b60006127f4601c83612df8565b91506127ff82613245565b602082019050919050565b6000612817601383612df8565b91506128228261326e565b602082019050919050565b600061283a602483612df8565b915061284582613297565b604082019050919050565b600061285d601983612df8565b9150612868826132e6565b602082019050919050565b6000612880602c83612df8565b915061288b8261330f565b604082019050919050565b60006128a3603883612df8565b91506128ae8261335e565b604082019050919050565b60006128c6602a83612df8565b91506128d1826133ad565b604082019050919050565b60006128e9602983612df8565b91506128f4826133fc565b604082019050919050565b600061290c602083612df8565b91506129178261344b565b602082019050919050565b600061292f602c83612df8565b915061293a82613474565b604082019050919050565b6000612952602f83612df8565b915061295d826134c3565b604082019050919050565b6000612975602183612df8565b915061298082613512565b604082019050919050565b6000612998603183612df8565b91506129a382613561565b604082019050919050565b60006129bb602c83612df8565b91506129c6826135b0565b604082019050919050565b6129da81612f39565b82525050565b60006129ec828461272a565b915081905092915050565b6000612a03828561272a565b9150612a0f828461272a565b91508190509392505050565b6000602082019050612a30600083018461269a565b92915050565b6000608082019050612a4b600083018761269a565b612a58602083018661269a565b612a6560408301856129d1565b8181036060830152612a7781846126b8565b905095945050505050565b6000602082019050612a9760008301846126a9565b92915050565b60006020820190508181036000830152612ab781846126f1565b905092915050565b60006040820190508181036000830152612ad981856126f1565b9050612ae860208301846129d1565b9392505050565b60006020820190508181036000830152612b088161275b565b9050919050565b60006020820190508181036000830152612b288161277e565b9050919050565b60006020820190508181036000830152612b48816127a1565b9050919050565b60006020820190508181036000830152612b68816127c4565b9050919050565b60006020820190508181036000830152612b88816127e7565b9050919050565b60006020820190508181036000830152612ba88161280a565b9050919050565b60006020820190508181036000830152612bc88161282d565b9050919050565b60006020820190508181036000830152612be881612850565b9050919050565b60006020820190508181036000830152612c0881612873565b9050919050565b60006020820190508181036000830152612c2881612896565b9050919050565b60006020820190508181036000830152612c48816128b9565b9050919050565b60006020820190508181036000830152612c68816128dc565b9050919050565b60006020820190508181036000830152612c88816128ff565b9050919050565b60006020820190508181036000830152612ca881612922565b9050919050565b60006020820190508181036000830152612cc881612945565b9050919050565b60006020820190508181036000830152612ce881612968565b9050919050565b60006020820190508181036000830152612d088161298b565b9050919050565b60006020820190508181036000830152612d28816129ae565b9050919050565b6000602082019050612d4460008301846129d1565b92915050565b6000612d54612d65565b9050612d608282612fb7565b919050565b6000604051905090565b600067ffffffffffffffff821115612d8a57612d896130ef565b5b612d938261311e565b9050602081019050919050565b600067ffffffffffffffff821115612dbb57612dba6130ef565b5b612dc48261311e565b9050602081019050919050565b600081519050919050565b600081519050919050565b600082825260208201905092915050565b600082825260208201905092915050565b600081905092915050565b6000612e1f82612f39565b9150612e2a83612f39565b9250827fffffffffffffffffffffffffffffffffffffffffffffffffffffffffffffffff03821115612e5f57612e5e613062565b5b828201905092915050565b6000612e7582612f39565b9150612e8083612f39565b925082612e9057612e8f613091565b5b828204905092915050565b6000612ea682612f39565b9150612eb183612f39565b925082821015612ec457612ec3613062565b5b828203905092915050565b6000612eda82612f19565b9050919050565b60008115159050919050565b60007fffffffff0000000000000000000000000000000000000000000000000000000082169050919050565b600073ffffffffffffffffffffffffffffffffffffffff82169050919050565b6000819050919050565b82818337600083830152505050565b60005b83811015612f70578082015181840152602081019050612f55565b83811115612f7f576000848401525b50505050565b60006002820490506001821680612f9d57607f821691505b60208210811415612fb157612fb06130c0565b5b50919050565b612fc08261311e565b810181811067ffffffffffffffff82111715612fdf57612fde6130ef565b5b80604052505050565b6000612ff382612f39565b91507fffffffffffffffffffffffffffffffffffffffffffffffffffffffffffffffff82141561302657613025613062565b5b600182019050919050565b600061303c82612f39565b915061304783612f39565b92508261305757613056613091565b5b828206905092915050565b7f4e487b7100000000000000000000000000000000000000000000000000000000600052601160045260246000fd5b7f4e487b7100000000000000000000000000000000000000000000000000000000600052601260045260246000fd5b7f4e487b7100000000000000000000000000000000000000000000000000000000600052602260045260246000fd5b7f4e487b7100000000000000000000000000000000000000000000000000000000600052604160045260246000fd5b6000601f19601f8301169050919050565b7f416c726561647920566f74656400000000000000000000000000000000000000600082015250565b7f455243373231456e756d657261626c653a206f776e657220696e646578206f7560008201527f74206f6620626f756e6473000000000000000000000000000000000000000000602082015250565b7f4552433732313a207472616e7366657220746f206e6f6e20455243373231526560008201527f63656976657220696d706c656d656e7465720000000000000000000000000000602082015250565b7f4552433732313a207472616e736665722066726f6d20696e636f72726563742060008201527f6f776e6572000000000000000000000000000000000000000000000000000000602082015250565b7f4552433732313a20746f6b656e20616c7265616479206d696e74656400000000600082015250565b7f596f7520617265206e6f7420616c6c6f77656400000000000000000000000000600082015250565b7f4552433732313a207472616e7366657220746f20746865207a65726f2061646460008201527f7265737300000000000000000000000000000000000000000000000000000000602082015250565b7f4552433732313a20617070726f766520746f2063616c6c657200000000000000600082015250565b7f4552433732313a206f70657261746f7220717565727920666f72206e6f6e657860008201527f697374656e7420746f6b656e0000000000000000000000000000000000000000602082015250565b7f4552433732313a20617070726f76652063616c6c6572206973206e6f74206f7760008201527f6e6572206e6f7220617070726f76656420666f7220616c6c0000000000000000602082015250565b7f4552433732313a2062616c616e636520717565727920666f7220746865207a6560008201527f726f206164647265737300000000000000000000000000000000000000000000602082015250565b7f4552433732313a206f776e657220717565727920666f72206e6f6e657869737460008201527f656e7420746f6b656e0000000000000000000000000000000000000000000000602082015250565b7f4552433732313a206d696e7420746f20746865207a65726f2061646472657373600082015250565b7f4552433732313a20617070726f76656420717565727920666f72206e6f6e657860008201527f697374656e7420746f6b656e0000000000000000000000000000000000000000602082015250565b7f4552433732314d657461646174613a2055524920717565727920666f72206e6f60008201527f6e6578697374656e7420746f6b656e0000000000000000000000000000000000602082015250565b7f4552433732313a20617070726f76616c20746f2063757272656e74206f776e6560008201527f7200000000000000000000000000000000000000000000000000000000000000602082015250565b7f4552433732313a207472616e736665722063616c6c6572206973206e6f74206f60008201527f776e6572206e6f7220617070726f766564000000000000000000000000000000602082015250565b7f455243373231456e756d657261626c653a20676c6f62616c20696e646578206f60008201527f7574206f6620626f756e64730000000000000000000000000000000000000000602082015250565b61360881612ecf565b811461361357600080fd5b50565b61361f81612ee1565b811461362a57600080fd5b50565b61363681612eed565b811461364157600080fd5b50565b61364d81612f39565b811461365857600080fd5b5056fea26469706673582212207adccb9cbdaffe109e2419530f1ba2cb8db484602df68b3242f40cd74235aead64736f6c63430008010033",
  "linkReferences": {},
  "deployedLinkReferences": {}
}